{
  "_format": "hh-sol-artifact-1",
  "contractName": "TerminiAggregator",
  "sourceName": "contracts/TerminiAggregator.sol",
  "abi": [
    {
      "inputs": [
        {
          "internalType": "address",
          "name": "target",
          "type": "address"
        }
      ],
      "name": "AddressEmptyCode",
      "type": "error"
    },
    {
      "inputs": [
        {
          "internalType": "address",
          "name": "implementation",
          "type": "address"
        }
      ],
      "name": "ERC1967InvalidImplementation",
      "type": "error"
    },
    {
      "inputs": [],
      "name": "ERC1967NonPayable",
      "type": "error"
    },
    {
      "inputs": [],
      "name": "EnforcedPause",
      "type": "error"
    },
    {
      "inputs": [],
      "name": "ExpectedPause",
      "type": "error"
    },
    {
      "inputs": [],
      "name": "FailedCall",
      "type": "error"
    },
    {
      "inputs": [],
      "name": "InvalidInitialization",
      "type": "error"
    },
    {
      "inputs": [],
      "name": "NotInitializing",
      "type": "error"
    },
    {
      "inputs": [
        {
          "internalType": "address",
          "name": "owner",
          "type": "address"
        }
      ],
      "name": "OwnableInvalidOwner",
      "type": "error"
    },
    {
      "inputs": [
        {
          "internalType": "address",
          "name": "account",
          "type": "address"
        }
      ],
      "name": "OwnableUnauthorizedAccount",
      "type": "error"
    },
    {
      "inputs": [],
      "name": "ReentrancyGuardReentrantCall",
      "type": "error"
    },
    {
      "inputs": [
        {
          "internalType": "address",
          "name": "token",
          "type": "address"
        }
      ],
      "name": "SafeERC20FailedOperation",
      "type": "error"
    },
    {
      "inputs": [],
      "name": "UUPSUnauthorizedCallContext",
      "type": "error"
    },
    {
      "inputs": [
        {
          "internalType": "bytes32",
          "name": "slot",
          "type": "bytes32"
        }
      ],
      "name": "UUPSUnsupportedProxiableUUID",
      "type": "error"
    },
    {
      "anonymous": false,
      "inputs": [
        {
          "indexed": true,
          "internalType": "uint16",
          "name": "id",
          "type": "uint16"
        },
        {
          "indexed": true,
          "internalType": "uint16",
          "name": "contractType",
          "type": "uint16"
        },
        {
          "indexed": true,
          "internalType": "address",
          "name": "quoter",
          "type": "address"
        },
        {
          "indexed": false,
          "internalType": "address",
          "name": "router",
          "type": "address"
        }
      ],
      "name": "DEXRegistered",
      "type": "event"
    },
    {
      "anonymous": false,
      "inputs": [
        {
          "indexed": false,
          "internalType": "uint16",
          "name": "id",
          "type": "uint16"
        }
      ],
      "name": "DEXUnregistered",
      "type": "event"
    },
    {
      "anonymous": false,
      "inputs": [
        {
          "indexed": true,
          "internalType": "address",
          "name": "feeCollector",
          "type": "address"
        }
      ],
      "name": "FeeCollectorUpdated",
      "type": "event"
    },
    {
      "anonymous": false,
      "inputs": [
        {
          "indexed": false,
          "internalType": "uint256",
          "name": "oldFeeRate",
          "type": "uint256"
        },
        {
          "indexed": false,
          "internalType": "uint256",
          "name": "newFeeRate",
          "type": "uint256"
        }
      ],
      "name": "FeeRateUpdated",
      "type": "event"
    },
    {
      "anonymous": false,
      "inputs": [
        {
          "indexed": false,
          "internalType": "uint64",
          "name": "version",
          "type": "uint64"
        }
      ],
      "name": "Initialized",
      "type": "event"
    },
    {
      "anonymous": false,
      "inputs": [
        {
          "indexed": true,
          "internalType": "address",
          "name": "previousOwner",
          "type": "address"
        },
        {
          "indexed": true,
          "internalType": "address",
          "name": "newOwner",
          "type": "address"
        }
      ],
      "name": "OwnershipTransferStarted",
      "type": "event"
    },
    {
      "anonymous": false,
      "inputs": [
        {
          "indexed": true,
          "internalType": "address",
          "name": "previousOwner",
          "type": "address"
        },
        {
          "indexed": true,
          "internalType": "address",
          "name": "newOwner",
          "type": "address"
        }
      ],
      "name": "OwnershipTransferred",
      "type": "event"
    },
    {
      "anonymous": false,
      "inputs": [
        {
          "indexed": false,
          "internalType": "address",
          "name": "account",
          "type": "address"
        }
      ],
      "name": "Paused",
      "type": "event"
    },
    {
      "anonymous": false,
      "inputs": [
        {
          "indexed": true,
          "internalType": "address",
          "name": "sender",
          "type": "address"
        },
        {
          "indexed": false,
          "internalType": "uint256",
          "name": "amount",
          "type": "uint256"
        }
      ],
      "name": "Received",
      "type": "event"
    },
    {
      "anonymous": false,
      "inputs": [
        {
          "indexed": false,
          "internalType": "uint256",
          "name": "oldRatio",
          "type": "uint256"
        },
        {
          "indexed": false,
          "internalType": "uint256",
          "name": "newRatio",
          "type": "uint256"
        }
      ],
      "name": "SlippageRatioUpdated",
      "type": "event"
    },
    {
      "anonymous": false,
      "inputs": [
        {
          "indexed": true,
          "internalType": "address",
          "name": "sender",
          "type": "address"
        },
        {
          "indexed": true,
          "internalType": "address",
          "name": "recipient",
          "type": "address"
        },
        {
          "indexed": true,
          "internalType": "address",
          "name": "tokenIn",
          "type": "address"
        },
        {
          "indexed": false,
          "internalType": "address",
          "name": "tokenOut",
          "type": "address"
        },
        {
          "indexed": false,
          "internalType": "uint256",
          "name": "amountIn",
          "type": "uint256"
        },
        {
          "indexed": false,
          "internalType": "uint256",
          "name": "amountOut",
          "type": "uint256"
        },
        {
          "indexed": false,
          "internalType": "uint256",
          "name": "fee",
          "type": "uint256"
        },
        {
          "indexed": false,
          "internalType": "uint256",
          "name": "slippageFeeCollectorAmount",
          "type": "uint256"
        },
        {
          "indexed": false,
          "internalType": "uint256",
          "name": "slippageUserAmount",
          "type": "uint256"
        }
      ],
      "name": "Swap",
      "type": "event"
    },
    {
      "anonymous": false,
      "inputs": [
        {
          "indexed": false,
          "internalType": "address",
          "name": "account",
          "type": "address"
        }
      ],
      "name": "Unpaused",
      "type": "event"
    },
    {
      "anonymous": false,
      "inputs": [
        {
          "indexed": true,
          "internalType": "address",
          "name": "implementation",
          "type": "address"
        }
      ],
      "name": "Upgraded",
      "type": "event"
    },
    {
      "inputs": [],
      "name": "UPGRADE_INTERFACE_VERSION",
      "outputs": [
        {
          "internalType": "string",
          "name": "",
          "type": "string"
        }
      ],
      "stateMutability": "view",
      "type": "function"
    },
    {
      "inputs": [],
      "name": "WETH",
      "outputs": [
        {
          "internalType": "address",
          "name": "",
          "type": "address"
        }
      ],
      "stateMutability": "view",
      "type": "function"
    },
    {
      "inputs": [],
      "name": "acceptOwnership",
      "outputs": [],
      "stateMutability": "nonpayable",
      "type": "function"
    },
    {
      "inputs": [],
      "name": "config",
      "outputs": [
        {
          "internalType": "uint16",
          "name": "feeRate",
          "type": "uint16"
        },
        {
          "internalType": "uint16",
          "name": "slippageRatio",
          "type": "uint16"
        },
        {
          "internalType": "address",
          "name": "feeCollector",
          "type": "address"
        }
      ],
      "stateMutability": "view",
      "type": "function"
    },
    {
      "inputs": [],
      "name": "initialize",
      "outputs": [],
      "stateMutability": "nonpayable",
      "type": "function"
    },
    {
      "inputs": [],
      "name": "owner",
      "outputs": [
        {
          "internalType": "address",
          "name": "",
          "type": "address"
        }
      ],
      "stateMutability": "view",
      "type": "function"
    },
    {
      "inputs": [],
      "name": "pause",
      "outputs": [],
      "stateMutability": "nonpayable",
      "type": "function"
    },
    {
      "inputs": [],
      "name": "paused",
      "outputs": [
        {
          "internalType": "bool",
          "name": "",
          "type": "bool"
        }
      ],
      "stateMutability": "view",
      "type": "function"
    },
    {
      "inputs": [],
      "name": "pendingOwner",
      "outputs": [
        {
          "internalType": "address",
          "name": "",
          "type": "address"
        }
      ],
      "stateMutability": "view",
      "type": "function"
    },
    {
      "inputs": [],
      "name": "proxiableUUID",
      "outputs": [
        {
          "internalType": "bytes32",
          "name": "",
          "type": "bytes32"
        }
      ],
      "stateMutability": "view",
      "type": "function"
    },
    {
      "inputs": [
        {
          "components": [
            {
              "internalType": "uint16",
              "name": "dexId",
              "type": "uint16"
            },
            {
              "internalType": "uint8",
              "name": "poolIndex",
              "type": "uint8"
            },
            {
              "internalType": "address",
              "name": "tokenIn",
              "type": "address"
            },
            {
              "internalType": "address",
              "name": "tokenOut",
              "type": "address"
            },
            {
              "internalType": "uint256",
              "name": "amount",
              "type": "uint256"
            },
            {
              "internalType": "bytes",
              "name": "extraData",
              "type": "bytes"
            }
          ],
          "internalType": "struct TerminiAggregator.QuoteRoute[]",
          "name": "routes",
          "type": "tuple[]"
        },
        {
          "internalType": "address",
          "name": "tokenIn",
          "type": "address"
        },
        {
          "internalType": "address",
          "name": "tokenOut",
          "type": "address"
        }
      ],
      "name": "quoteExactIn",
      "outputs": [
        {
          "internalType": "uint256",
          "name": "tokenOutAmount",
          "type": "uint256"
        },
        {
          "internalType": "uint256[]",
          "name": "amounts",
          "type": "uint256[]"
        }
      ],
      "stateMutability": "nonpayable",
      "type": "function"
    },
    {
      "inputs": [
        {
          "internalType": "uint16",
          "name": "id",
          "type": "uint16"
        },
        {
          "internalType": "uint16",
          "name": "contractType",
          "type": "uint16"
        },
        {
          "internalType": "address",
          "name": "quoter",
          "type": "address"
        },
        {
          "internalType": "address",
          "name": "router",
          "type": "address"
        },
        {
          "internalType": "bytes",
          "name": "extraData",
          "type": "bytes"
        }
      ],
      "name": "registerDEX",
      "outputs": [],
      "stateMutability": "nonpayable",
      "type": "function"
    },
    {
      "inputs": [
        {
          "internalType": "uint16",
          "name": "",
          "type": "uint16"
        }
      ],
      "name": "registeredDEXInfo",
      "outputs": [
        {
          "internalType": "uint16",
          "name": "id",
          "type": "uint16"
        },
        {
          "internalType": "uint16",
          "name": "contractType",
          "type": "uint16"
        },
        {
          "internalType": "bool",
          "name": "isActive",
          "type": "bool"
        },
        {
          "internalType": "address",
          "name": "quoter",
          "type": "address"
        },
        {
          "internalType": "address",
          "name": "router",
          "type": "address"
        },
        {
          "internalType": "bytes",
          "name": "extraData",
          "type": "bytes"
        }
      ],
      "stateMutability": "view",
      "type": "function"
    },
    {
      "inputs": [],
      "name": "renounceOwnership",
      "outputs": [],
      "stateMutability": "nonpayable",
      "type": "function"
    },
    {
      "inputs": [
        {
          "internalType": "address",
          "name": "newFeeCollector",
          "type": "address"
        }
      ],
      "name": "setFeeCollector",
      "outputs": [],
      "stateMutability": "nonpayable",
      "type": "function"
    },
    {
      "inputs": [
        {
          "internalType": "uint16",
          "name": "newFeeRate",
          "type": "uint16"
        }
      ],
      "name": "setFeeRate",
      "outputs": [],
      "stateMutability": "nonpayable",
      "type": "function"
    },
    {
      "inputs": [
        {
          "internalType": "uint16",
          "name": "newRatio",
          "type": "uint16"
        }
      ],
      "name": "setSlippageRatio",
      "outputs": [],
      "stateMutability": "nonpayable",
      "type": "function"
    },
    {
      "inputs": [
        {
          "components": [
            {
              "internalType": "uint16",
              "name": "dexId",
              "type": "uint16"
            },
            {
              "internalType": "address",
              "name": "tokenIn",
              "type": "address"
            },
            {
              "internalType": "address",
              "name": "tokenOut",
              "type": "address"
            },
            {
              "internalType": "uint256",
              "name": "amountIn",
              "type": "uint256"
            },
            {
              "internalType": "uint256",
              "name": "amountOutMin",
              "type": "uint256"
            },
            {
              "internalType": "bytes",
              "name": "extraData",
              "type": "bytes"
            }
          ],
          "internalType": "struct TerminiAggregator.SwapRoute[]",
          "name": "routes",
          "type": "tuple[]"
        },
        {
          "internalType": "address",
          "name": "tokenOut",
          "type": "address"
        },
        {
          "internalType": "uint256",
          "name": "amountOutMin",
          "type": "uint256"
        },
        {
          "internalType": "uint256",
          "name": "amountOutExpected",
          "type": "uint256"
        },
        {
          "internalType": "address",
          "name": "to",
          "type": "address"
        },
        {
          "internalType": "uint256",
          "name": "deadline",
          "type": "uint256"
        }
      ],
      "name": "swapExactETHForTokens",
      "outputs": [
        {
          "internalType": "uint256",
          "name": "tokenOutAmount",
          "type": "uint256"
        },
        {
          "internalType": "uint256[]",
          "name": "amounts",
          "type": "uint256[]"
        }
      ],
      "stateMutability": "payable",
      "type": "function"
    },
    {
      "inputs": [
        {
          "components": [
            {
              "internalType": "uint16",
              "name": "dexId",
              "type": "uint16"
            },
            {
              "internalType": "address",
              "name": "tokenIn",
              "type": "address"
            },
            {
              "internalType": "address",
              "name": "tokenOut",
              "type": "address"
            },
            {
              "internalType": "uint256",
              "name": "amountIn",
              "type": "uint256"
            },
            {
              "internalType": "uint256",
              "name": "amountOutMin",
              "type": "uint256"
            },
            {
              "internalType": "bytes",
              "name": "extraData",
              "type": "bytes"
            }
          ],
          "internalType": "struct TerminiAggregator.SwapRoute[]",
          "name": "routes",
          "type": "tuple[]"
        },
        {
          "internalType": "address",
          "name": "tokenIn",
          "type": "address"
        },
        {
          "internalType": "uint256",
          "name": "amountOutMin",
          "type": "uint256"
        },
        {
          "internalType": "uint256",
          "name": "amountOutExpected",
          "type": "uint256"
        },
        {
          "internalType": "address",
          "name": "to",
          "type": "address"
        },
        {
          "internalType": "uint256",
          "name": "deadline",
          "type": "uint256"
        }
      ],
      "name": "swapExactTokensForETH",
      "outputs": [
        {
          "internalType": "uint256",
          "name": "tokenOutAmount",
          "type": "uint256"
        },
        {
          "internalType": "uint256[]",
          "name": "amounts",
          "type": "uint256[]"
        }
      ],
      "stateMutability": "nonpayable",
      "type": "function"
    },
    {
      "inputs": [
        {
          "components": [
            {
              "internalType": "uint16",
              "name": "dexId",
              "type": "uint16"
            },
            {
              "internalType": "address",
              "name": "tokenIn",
              "type": "address"
            },
            {
              "internalType": "address",
              "name": "tokenOut",
              "type": "address"
            },
            {
              "internalType": "uint256",
              "name": "amountIn",
              "type": "uint256"
            },
            {
              "internalType": "uint256",
              "name": "amountOutMin",
              "type": "uint256"
            },
            {
              "internalType": "bytes",
              "name": "extraData",
              "type": "bytes"
            }
          ],
          "internalType": "struct TerminiAggregator.SwapRoute[]",
          "name": "routes",
          "type": "tuple[]"
        },
        {
          "internalType": "address",
          "name": "tokenIn",
          "type": "address"
        },
        {
          "internalType": "address",
          "name": "tokenOut",
          "type": "address"
        },
        {
          "internalType": "uint256",
          "name": "amountOutMin",
          "type": "uint256"
        },
        {
          "internalType": "uint256",
          "name": "amountOutExpected",
          "type": "uint256"
        },
        {
          "internalType": "address",
          "name": "to",
          "type": "address"
        },
        {
          "internalType": "uint256",
          "name": "deadline",
          "type": "uint256"
        }
      ],
      "name": "swapExactTokensForTokens",
      "outputs": [
        {
          "internalType": "uint256",
          "name": "tokenOutAmount",
          "type": "uint256"
        },
        {
          "internalType": "uint256[]",
          "name": "amounts",
          "type": "uint256[]"
        }
      ],
      "stateMutability": "payable",
      "type": "function"
    },
    {
      "inputs": [
        {
          "internalType": "address",
          "name": "newOwner",
          "type": "address"
        }
      ],
      "name": "transferOwnership",
      "outputs": [],
      "stateMutability": "nonpayable",
      "type": "function"
    },
    {
      "inputs": [],
      "name": "unpause",
      "outputs": [],
      "stateMutability": "nonpayable",
      "type": "function"
    },
    {
      "inputs": [
        {
          "internalType": "uint16",
          "name": "id",
          "type": "uint16"
        }
      ],
      "name": "unregisterDEX",
      "outputs": [],
      "stateMutability": "nonpayable",
      "type": "function"
    },
    {
      "inputs": [
        {
          "internalType": "address",
          "name": "newImplementation",
          "type": "address"
        },
        {
          "internalType": "bytes",
          "name": "data",
          "type": "bytes"
        }
      ],
      "name": "upgradeToAndCall",
      "outputs": [],
      "stateMutability": "payable",
      "type": "function"
    },
    {
      "stateMutability": "payable",
      "type": "receive"
    }
  ],
  "bytecode": "0x60a06040523060805234801561001457600080fd5b50608051613f9361003e6000396000818161221d01528181612246015261238c0152613f936000f3fe60806040526004361061014f5760003560e01c80638456cb59116100b6578063c31219cf1161006f578063c31219cf14610406578063c952d4f714610426578063d6ac4ce514610458578063db89cc7f14610478578063e30c397814610498578063f2fde38b146104ad57600080fd5b80638456cb591461032b578063890f275f146103405780638da5cb5b14610360578063a42dce801461038d578063ad3cb1cc146103ad578063ad5c4648146103eb57600080fd5b80635c975abb116101085780635c975abb1461023a578063715018a61461026a57806379502c551461027f57806379ba5097146102e157806380b6f36c146102f65780638129fc1c1461031657600080fd5b806304a5baf1146101905780631d47eedc146101ba57806329ff0773146101cd5780633f4ba83a146101ef5780634f1ef2861461020457806352d1902d1461021757600080fd5b3661018b5760405134815233907f88a5966d370b9919b20f3e2c13ff65706f196a4e32cc2c12bf57088f885258749060200160405180910390a2005b600080fd5b6101a361019e3660046133d7565b6104cd565b6040516101b192919061345d565b60405180910390f35b6101a36101c83660046134ad565b61071a565b3480156101d957600080fd5b506101ed6101e836600461355c565b61087c565b005b3480156101fb57600080fd5b506101ed610926565b6101ed610212366004613654565b610938565b34801561022357600080fd5b5061022c610957565b6040519081526020016101b1565b34801561024657600080fd5b50600080516020613f1e8339815191525460ff1660405190151581526020016101b1565b34801561027657600080fd5b506101ed610974565b34801561028b57600080fd5b506000546102b79061ffff8082169162010000810490911690600160201b90046001600160a01b031683565b6040805161ffff94851681529390921660208401526001600160a01b0316908201526060016101b1565b3480156102ed57600080fd5b506101ed610986565b34801561030257600080fd5b506101ed61031136600461355c565b6109ce565b34801561032257600080fd5b506101ed610a8f565b34801561033757600080fd5b506101ed610bd4565b34801561034c57600080fd5b506101ed61035b36600461355c565b610be4565b34801561036c57600080fd5b50610375610c8f565b6040516001600160a01b0390911681526020016101b1565b34801561039957600080fd5b506101ed6103a83660046136a3565b610cc4565b3480156103b957600080fd5b506103de604051806040016040528060058152602001640352e302e360dc1b81525081565b6040516101b19190613710565b3480156103f757600080fd5b506103756006602160991b0181565b34801561041257600080fd5b506101a36104213660046133d7565b610dbf565b34801561043257600080fd5b5061044661044136600461355c565b611036565b6040516101b196959493929190613723565b34801561046457600080fd5b506101a3610473366004613769565b611116565b34801561048457600080fd5b506101ed6104933660046137d0565b611582565b3480156104a457600080fd5b5061037561181b565b3480156104b957600080fd5b506101ed6104c83660046136a3565b611844565b600060606104d96118c9565b6104e1611901565b828042111561050b5760405162461bcd60e51b815260040161050290613887565b60405180910390fd5b600034116105505760405162461bcd60e51b8152602060048201526012602482015271125b9d985b1a590811551208185b5bdd5b9d60721b6044820152606401610502565b6001600160a01b0385166105765760405162461bcd60e51b8152600401610502906138b4565b868610156105965760405162461bcd60e51b8152600401610502906138e0565b60006105ab8b8b6006602160991b018c611932565b90503481146105ef5760405162461bcd60e51b815260206004820152601060248201526f24b73b30b634b21030b6b7bab73a24b760811b6044820152606401610502565b6006602160991b016001600160a01b031663d0e30db0346040518263ffffffff1660e01b81526004016000604051808303818588803b15801561063157600080fd5b505af1158015610645573d6000803e3d6000fd5b505050505060006106618c8c6006602160991b018d8d8c611c11565b91965090945090506000806106816006602160991b018d858a8e8e61200d565b9092509050610690828861392d565b965060006001600160a01b0316896001600160a01b0316336001600160a01b03167f40997d238e11ae20f00d25adab0cd2ed389f5c94ccea812f68ceff69d92d7ad98f888c8989896040516106ea96959493929190613940565b60405180910390a4505050505061070e6001600080516020613f3e83398151915255565b97509795505050505050565b600060606107266118c9565b61072e611901565b828042111561074f5760405162461bcd60e51b815260040161050290613887565b6001600160a01b0385166107755760405162461bcd60e51b8152600401610502906138b4565b868610156107955760405162461bcd60e51b8152600401610502906138e0565b60006107a38c8c8c8c611932565b90506107ba6001600160a01b038b16333084612119565b60006107ca8d8d8d8d8d8c611c11565b91965090945090506000806107e38d8d858a8e8e61200d565b90925090506107f2828861392d565b96508c6001600160a01b0316896001600160a01b0316336001600160a01b03167f40997d238e11ae20f00d25adab0cd2ed389f5c94ccea812f68ceff69d92d7ad98f888c89898960405161084b96959493929190613940565b60405180910390a4505050505061086f6001600080516020613f3e83398151915255565b9850989650505050505050565b610884612186565b6103e88161ffff1611156108ce5760405162461bcd60e51b815260206004820152601160248201527008ccaca40e4c2e8ca40e8dede40d0d2ced607b1b6044820152606401610502565b6000805461ffff83811661ffff1983168117909355604080519190921680825260208201939093527f14914da2bf76024616fbe1859783fcd4dbddcb179b1f3a854949fbf920dcb95791015b60405180910390a15050565b61092e612186565b6109366121b8565b565b610940612212565b610949826122b7565b61095382826122bf565b5050565b6000610961612381565b50600080516020613efe83398151915290565b61097c612186565b61093660006123ca565b338061099061181b565b6001600160a01b0316146109c25760405163118cdaa760e01b81526001600160a01b0382166004820152602401610502565b6109cb816123ca565b50565b6109d6612186565b61ffff8116600090815260016020526040902054600160201b900460ff16610a105760405162461bcd60e51b815260040161050290613973565b61ffff81166000908152600160208190526040822080546001600160c81b031916815590810180546001600160a01b031916905590610a526002830182613329565b505060405161ffff821681527f20999a02e36a43d0d28d1dcba65c8ba2254824e9ce56792e4aba4e2896cc353b906020015b60405180910390a150565b7ff0c57e16840df040f15088dc2f81fe391c3923bec73e23a9662efc9c229c6a008054600160401b810460ff1615906001600160401b0316600081158015610ad45750825b90506000826001600160401b03166001148015610af05750303b155b905081158015610afe575080155b15610b1c5760405163f92ee8a960e01b815260040160405180910390fd5b845467ffffffffffffffff191660011785558315610b4657845460ff60401b1916600160401b1785555b610b4f33612402565b610b57612413565b610b5f612423565b610b67612433565b60008054600160201b33026001600160c01b03199091161763271000001790558315610bcd57845460ff60401b19168555604051600181527fc7f505b2f371ae2175ee4913f4499e1f2633a7b5936321eed1cdaeb6115181d29060200160405180910390a15b5050505050565b610bdc612186565b61093661243b565b610bec612186565b6127108161ffff161115610c335760405162461bcd60e51b815260206004820152600e60248201526d0a4c2e8d2de40e8dede40d0d2ced60931b6044820152606401610502565b6000805461ffff8381166201000081810263ffff00001985161790945560408051949093049091168084526020840191909152917f23e7e60d7be6158d548cb3b030e04074c44aee685a26eb25c417889c0ad87c91910161091a565b6000807f9016d09d72d40fdae2fd8ceac6b6234c7706214fd39c1cd1e609a0528c1993005b546001600160a01b031692915050565b610ccc612186565b6001600160a01b038116610d1a5760405162461bcd60e51b815260206004820152601560248201527424b73b30b634b2103332b29031b7b63632b1ba37b960591b6044820152606401610502565b306001600160a01b03821603610d6a5760405162461bcd60e51b815260206004820152601560248201527424b73b30b634b2103332b29031b7b63632b1ba37b960591b6044820152606401610502565b60008054640100000000600160c01b031916600160201b6001600160a01b03841690810291909117825560405190917fe5693914d19c789bdee50a362998c0bc8d035a835f9871da5d51152f0582c34f91a250565b60006060610dcb6118c9565b610dd3611901565b8280421115610df45760405162461bcd60e51b815260040161050290613887565b6001600160a01b038516610e1a5760405162461bcd60e51b8152600401610502906138b4565b86861015610e3a5760405162461bcd60e51b8152600401610502906138e0565b6000610e4f8b8b8b6006602160991b01611932565b9050610e666001600160a01b038a16333084612119565b6000610e7d8c8c8c6006602160991b018d8c611c11565b9196509094509050600080610e9d8c6006602160991b01858a8e3061200d565b9092509050610eac828861392d565b604051632e1a7d4d60e01b8152600481018290529097506006602160991b0190632e1a7d4d90602401600060405180830381600087803b158015610eef57600080fd5b505af1158015610f03573d6000803e3d6000fd5b5050604080516000808252602082019283905293506001600160a01b038d1692508a91610f30919061399f565b60006040518083038185875af1925050503d8060008114610f6d576040519150601f19603f3d011682016040523d82523d6000602084013e610f72565b606091505b5050905080610fb95760405162461bcd60e51b8152602060048201526013602482015272115512081d1c985b9cd9995c8819985a5b1959606a1b6044820152606401610502565b8c6001600160a01b03168a6001600160a01b0316336001600160a01b03167f40997d238e11ae20f00d25adab0cd2ed389f5c94ccea812f68ceff69d92d7ad96000898d8a8a8a60405161101196959493929190613940565b60405180910390a450505050505061070e6001600080516020613f3e83398151915255565b600160208190526000918252604090912080549181015460028201805461ffff808616956201000081049091169460ff600160201b830416946001600160a01b0365010000000000909304831694921692909190611093906139bb565b80601f01602080910402602001604051908101604052809291908181526020018280546110bf906139bb565b801561110c5780601f106110e15761010080835404028352916020019161110c565b820191906000526020600020905b8154815290600101906020018083116110ef57829003601f168201915b5050505050905086565b60006060611122611901565b600061113087878787612484565b9050856001600160401b0381111561114a5761114a613577565b604051908082528060200260200182016040528015611173578160200160208202803683370190505b506040805160c08101825260008082526020820181905291810182905260608082018390526080820183905260a0820152919350908190606080600060ff871615611247578660ff166001600160401b038111156111d3576111d3613577565b6040519080825280602002602001820160405280156111fc578160200160208202803683370190505b5092508660ff166001600160401b0381111561121a5761121a613577565b604051908082528060200260200182016040528015611243578160200160208202803683370190505b5091505b60005b8c811015611571578d8d82818110611264576112646139f5565b90506020028101906112769190613a0b565b61127f90613a32565b94508b6001600160a01b031685604001516001600160a01b03160361132557608085015160005490975061ffff16156113205760008054612710906112c89061ffff168a613ac9565b6112d29190613ae0565b90508781106113125760405162461bcd60e51b815260206004820152600c60248201526b08ccaca40e8dede40d0d2ced60a31b6044820152606401610502565b61131c818961392d565b9750505b61134c565b8861133160018361392d565b81518110611341576113416139f5565b602002602001015196505b602085015160ff16156113b9576001856020015161136a9190613b02565b9150838260ff1681518110611381576113816139f5565b6020026020010151876113949190613b1b565b965086848360ff16815181106113ac576113ac6139f5565b6020026020010181815250505b845161ffff90811660009081526001602052604080822054885184168352918190205490880151606089015160a08a015161141495650100000000009095046001600160a01b03169462010000909404909316928c906127a7565b898281518110611426576114266139f5565b6020026020010181815250506000856020015160ff16111561152457888181518110611454576114546139f5565b60200260200101519550828260ff1681518110611473576114736139f5565b602002602001015189828151811061148d5761148d6139f5565b602002602001018181516114a1919061392d565b90525088516000908a90839081106114bb576114bb6139f5565b6020026020010151116115015760405162461bcd60e51b815260206004820152600e60248201526d416d6f756e7420746f6f206c6f7760901b6044820152606401610502565b85838360ff1681518110611517576115176139f5565b6020026020010181815250505b8a6001600160a01b031685606001516001600160a01b03160361156957888181518110611553576115536139f5565b60200260200101518a6115669190613b1b565b99505b60010161124a565b505050505050505094509492505050565b61158a612186565b60008661ffff16116115cf5760405162461bcd60e51b815260206004820152600e60248201526d125b9d985b1a590811115608125160921b6044820152606401610502565b61ffff8516158015906115e65750600461ffff8616105b61162a5760405162461bcd60e51b8152602060048201526015602482015274496e76616c696420636f6e7472616374207479706560581b6044820152606401610502565b61ffff8616600090815260016020526040902054600160201b900460ff161561168e5760405162461bcd60e51b815260206004820152601660248201527511115608185b1c9958591e481c9959da5cdd195c995960521b6044820152606401610502565b6040518060c001604052808761ffff1681526020018661ffff168152602001600115158152602001856001600160a01b03168152602001846001600160a01b0316815260200183838080601f016020809104026020016040519081016040528093929190818152602001838380828437600092018290525093909452505061ffff898116825260016020818152604093849020865181549288015195880151606089015191861663ffffffff199094169390931762010000969095169590950293909317640100000000600160c81b031916600160201b9115159190910265010000000000600160c81b03191617650100000000006001600160a01b0394851602178255608085015190820180546001600160a01b031916919093161790915560a083015190915060028201906117c59082613b7e565b50506040516001600160a01b0385811682528616915061ffff80881691908916907f13721083d6d9cc8a54284847e44bb284967f95fb55a1df40bafff44166d0839b9060200160405180910390a4505050505050565b6000807f237e158222e3e6968b72b9db0d8043aacf074ad9f650f0d1606b4d82ee432c00610cb4565b61184c612186565b7f237e158222e3e6968b72b9db0d8043aacf074ad9f650f0d1606b4d82ee432c0080546001600160a01b0319166001600160a01b0383169081178255611890610c8f565b6001600160a01b03167f38d16b8cac22d99fc7c124b9cd0de2d3fa1faef420bfe791d8c362d765e2270060405160405180910390a35050565b600080516020613f3e8339815191528054600119016118fb57604051633ee5aeb560e01b815260040160405180910390fd5b60029055565b600080516020613f1e8339815191525460ff16156109365760405163d93c066560e01b815260040160405180910390fd5b6000836119515760405162461bcd60e51b815260040161050290613c3d565b826001600160a01b03168585600081811061196e5761196e6139f5565b90506020028101906119809190613a0b565b6119919060408101906020016136a3565b6001600160a01b03161480156119f657506001600160a01b03821685856119b960018261392d565b8181106119c8576119c86139f5565b90506020028101906119da9190613a0b565b6119eb9060608101906040016136a3565b6001600160a01b0316145b611a125760405162461bcd60e51b815260040161050290613c3d565b60005b84811015611bc557836001600160a01b0316868683818110611a3957611a396139f5565b9050602002810190611a4b9190613a0b565b611a5c9060408101906020016136a3565b6001600160a01b031603611aa357858582818110611a7c57611a7c6139f5565b9050602002810190611a8e9190613a0b565b611a9c906060013583613b1b565b9150611b4c565b8015611b4c578585611ab660018461392d565b818110611ac557611ac56139f5565b9050602002810190611ad79190613a0b565b611ae89060608101906040016136a3565b6001600160a01b0316868683818110611b0357611b036139f5565b9050602002810190611b159190613a0b565b611b269060408101906020016136a3565b6001600160a01b031614611b4c5760405162461bcd60e51b815260040161050290613c3d565b60016000878784818110611b6257611b626139f5565b9050602002810190611b749190613a0b565b611b8290602081019061355c565b61ffff168152602081019190915260400160002054600160201b900460ff16611bbd5760405162461bcd60e51b815260040161050290613973565b600101611a15565b5060008111611c095760405162461bcd60e51b815260206004820152601060248201526f24b73b30b634b21030b6b7bab73a24b760811b6044820152606401610502565b949350505050565b6000806060876001600160401b03811115611c2e57611c2e613577565b604051908082528060200260200182016040528015611c57578160200160208202803683370190505b506040805160c08101825260008082526020820181905291810182905260608082018390526080820183905260a08201529192509060008060005b8c811015611fb4578d8d82818110611cac57611cac6139f5565b9050602002810190611cbe9190613a0b565b611cc790613c64565b93508b6001600160a01b031684602001516001600160a01b031603611d7757606084015160005490955061ffff1615611d725760005461271090611d0f9061ffff1687613ac9565b611d199190613ae0565b9250848310611d595760405162461bcd60e51b815260206004820152600c60248201526b08ccaca40e8dede40d0d2ced60a31b6044820152606401610502565b611d638388613b1b565b9650611d6f838661392d565b94505b611d9e565b85611d8360018361392d565b81518110611d9357611d936139f5565b602002602001015194505b835161ffff166000908152600160208181526040909220015490850151611dd2916001600160a01b03918216911687612acc565b60208401516040516370a0823160e01b81523060048201526001600160a01b03909116906370a0823190602401602060405180830381865afa158015611e1c573d6000803e3d6000fd5b505050506040513d601f19601f82011682018060405250810190611e409190613cde565b845161ffff9081166000908152600160208181526040808420909201548951851684529282902054908901519189015160808a015160a08b0151969850611ea3966001600160a01b0390951695620100009093049092169390918b913090612b5c565b868281518110611eb557611eb56139f5565b6020908102919091018101919091528401516040516370a0823160e01b81523060048201526001600160a01b03909116906370a0823190602401602060405180830381865afa158015611f0c573d6000803e3d6000fd5b505050506040513d601f19601f82011682018060405250810190611f309190613cde565b611f3a908361392d565b915084821015611f6757611f6789611f52848861392d565b60208701516001600160a01b03169190612f19565b8a6001600160a01b031684604001516001600160a01b031603611fac57858181518110611f9657611f966139f5565b602002602001015188611fa99190613b1b565b97505b600101611c92565b5088871015611ffd5760405162461bcd60e51b81526020600482015260156024820152740c2dadeeadce89eeae89ad2dc40e8dede40d0d2ced605b1b6044820152606401610502565b5050505096509650969350505050565b6000808385111561206f576000612024858761392d565b600054909150612710906120429062010000900461ffff1683613ac9565b61204c9190613ae0565b9250612058838261392d565b9150821561206d5761206a838761392d565b95505b505b600054600160201b90046001600160a01b031630146120d65781156120af576000546120af906001600160a01b0389811691600160201b90041684612f19565b85156120d6576000546120d6906001600160a01b038a811691600160201b90041688612f19565b6001600160a01b03831630146120fa576120fa6001600160a01b0388168487612f19565b965096945050505050565b6001600080516020613f3e83398151915255565b6040516001600160a01b0384811660248301528381166044830152606482018390526121809186918216906323b872dd906084015b604051602081830303815290604052915060e01b6020820180516001600160e01b038381831617835250505050612f4a565b50505050565b3361218f610c8f565b6001600160a01b0316146109365760405163118cdaa760e01b8152336004820152602401610502565b6121c0612fbb565b600080516020613f1e833981519152805460ff191681557f5db9ee0a495bf2e6ff9c91a7834c1ba4fdd244a5e8aa4e537bd38aeae4b073aa335b6040516001600160a01b039091168152602001610a84565b306001600160a01b037f000000000000000000000000000000000000000000000000000000000000000016148061229957507f00000000000000000000000000000000000000000000000000000000000000006001600160a01b031661228d600080516020613efe833981519152546001600160a01b031690565b6001600160a01b031614155b156109365760405163703e46dd60e11b815260040160405180910390fd5b6109cb612186565b816001600160a01b03166352d1902d6040518163ffffffff1660e01b8152600401602060405180830381865afa925050508015612319575060408051601f3d908101601f1916820190925261231691810190613cde565b60015b61234157604051634c9c8ce360e01b81526001600160a01b0383166004820152602401610502565b600080516020613efe833981519152811461237257604051632a87526960e21b815260048101829052602401610502565b61237c8383612feb565b505050565b306001600160a01b037f000000000000000000000000000000000000000000000000000000000000000016146109365760405163703e46dd60e11b815260040160405180910390fd5b7f237e158222e3e6968b72b9db0d8043aacf074ad9f650f0d1606b4d82ee432c0080546001600160a01b031916815561095382613041565b61240a6130b2565b6109cb816130fb565b61241b6130b2565b61093661312d565b61242b6130b2565b610936613135565b6109366130b2565b612443611901565b600080516020613f1e833981519152805460ff191660011781557f62e78cea01bee320cd4e420270b5ea74000d11b0c9f74754ebdbfc544b05a258336121fa565b6000836124a35760405162461bcd60e51b815260040161050290613c3d565b826001600160a01b0316858560008181106124c0576124c06139f5565b90506020028101906124d29190613a0b565b6124e39060608101906040016136a3565b6001600160a01b031614801561254857506001600160a01b038216858561250b60018261392d565b81811061251a5761251a6139f5565b905060200281019061252c9190613a0b565b61253d9060808101906060016136a3565b6001600160a01b0316145b6125645760405162461bcd60e51b815260040161050290613c3d565b60005b84811015612760576000811180156125c55750836001600160a01b0316868683818110612596576125966139f5565b90506020028101906125a89190613a0b565b6125b99060608101906040016136a3565b6001600160a01b031614155b1561266d5785856125d760018461392d565b8181106125e6576125e66139f5565b90506020028101906125f89190613a0b565b6126099060808101906060016136a3565b6001600160a01b0316868683818110612624576126246139f5565b90506020028101906126369190613a0b565b6126479060608101906040016136a3565b6001600160a01b03161461266d5760405162461bcd60e51b815260040161050290613c3d565b8160ff16868683818110612683576126836139f5565b90506020028101906126959190613a0b565b6126a6906040810190602001613cf7565b60ff1611156126e7578585828181106126c1576126c16139f5565b90506020028101906126d39190613a0b565b6126e4906040810190602001613cf7565b91505b600160008787848181106126fd576126fd6139f5565b905060200281019061270f9190613a0b565b61271d90602081019061355c565b61ffff168152602081019190915260400160002054600160201b900460ff166127585760405162461bcd60e51b815260040161050290613973565b600101612567565b5060ff81168411611c095760405162461bcd60e51b8152602060048201526011602482015270092dcecc2d8d2c840e0deded892dcc8caf607b1b6044820152606401610502565b600060001961ffff8716016128c95760408051600280825260608201835260009260208301908036833701905050905085816000815181106127eb576127eb6139f5565b60200260200101906001600160a01b031690816001600160a01b031681525050848160018151811061281f5761281f6139f5565b6001600160a01b03928316602091820292909201015260405163d06ca61f60e01b81526000918a169063d06ca61f9061285e9088908690600401613d57565b600060405180830381865afa15801561287b573d6000803e3d6000fd5b505050506040513d6000823e601f3d908101601f191682016040526128a39190810190613d70565b9050806001815181106128b8576128b86139f5565b602002602001015192505050612ac2565b60011961ffff8716016129ce57600080838060200190518101906128ed9190613e09565b6040805160a0810182526001600160a01b03808c1682528a8116602083019081528284018b815262ffffff80881660608601908152848816608087019081529651636352813560e11b81528651861660048201529351851660248501529151604484015290511660648201529251811660848401529395509193509091600091908c169063c6a5026a9060a4015b6080604051808303816000875af115801561299a573d6000803e3d6000fd5b505050506040513d601f19601f820116820180604052508101906129be9190613e4b565b50919650612ac295505050505050565b60021961ffff871601612a8357600080838060200190518101906129f29190613e9d565b6040805160a0810182526001600160a01b03808c1682528a8116602083019081528284018b8152600287810b60608601908152848816608087019081529651634f3ef7f360e11b8152865186166004820152935185166024850152915160448401529051900b60648201529251811660848401529395509193509091600091908c1690639e7defe69060a40161297b565b60405162461bcd60e51b8152602060048201526014602482015273556e737570706f7274656420444558207479706560601b6044820152606401610502565b9695505050505050565b604080516001600160a01b038416602482015260448082018490528251808303909101815260649091019091526020810180516001600160e01b031663095ea7b360e01b179052612b1d8482613156565b612180576040516001600160a01b03848116602483015260006044830152612b5291869182169063095ea7b39060640161214e565b6121808482612f4a565b600060001961ffff891601612c86576040805160028082526060820183526000926020830190803683370190505090508781600081518110612ba057612ba06139f5565b60200260200101906001600160a01b031690816001600160a01b0316815250508681600181518110612bd457612bd46139f5565b6001600160a01b0392831660209182029290920101526040516338ed173960e01b81526000918c16906338ed173990612c19908a908a9087908b904290600401613ec1565b6000604051808303816000875af1158015612c38573d6000803e3d6000fd5b505050506040513d6000823e601f3d908101601f19168201604052612c609190810190613d70565b905080600181518110612c7557612c756139f5565b602002602001015192505050612f0d565b60011961ffff891601612df25760008083806020019051810190612caa9190613e09565b9150915060006040518061010001604052808b6001600160a01b031681526020018a6001600160a01b031681526020018462ffffff168152602001876001600160a01b03168152602001428152602001898152602001888152602001836001600160a01b031681525090508b6001600160a01b031663414bf389826040518263ffffffff1660e01b8152600401612da5919081516001600160a01b03908116825260208084015182169083015260408084015162ffffff16908301526060808401518216908301526080808401519083015260a0838101519083015260c0808401519083015260e09283015116918101919091526101000190565b6020604051808303816000875af1158015612dc4573d6000803e3d6000fd5b505050506040513d601f19601f82011682018060405250810190612de89190613cde565b9350505050612f0d565b60021961ffff891601612a835760008083806020019051810190612e169190613e9d565b9150915060006040518061010001604052808b6001600160a01b031681526020018a6001600160a01b031681526020018460020b8152602001876001600160a01b03168152602001428152602001898152602001888152602001836001600160a01b031681525090508b6001600160a01b031663a026383e826040518263ffffffff1660e01b8152600401612da5919081516001600160a01b03908116825260208084015182169083015260408084015160020b908301526060808401518216908301526080808401519083015260a0838101519083015260c0808401519083015260e09283015116918101919091526101000190565b98975050505050505050565b6040516001600160a01b0383811660248301526044820183905261237c91859182169063a9059cbb9060640161214e565b600080602060008451602086016000885af180612f6d576040513d6000823e3d81fd5b50506000513d91508115612f85578060011415612f92565b6001600160a01b0384163b155b1561218057604051635274afe760e01b81526001600160a01b0385166004820152602401610502565b600080516020613f1e8339815191525460ff1661093657604051638dfc202b60e01b815260040160405180910390fd5b612ff4826131a7565b6040516001600160a01b038316907fbc7cd75a20ee27fd9adebab32041f755214dbc6bffa90cc0225b39da2e5c2d3b90600090a28051156130395761237c828261320c565b610953613282565b7f9016d09d72d40fdae2fd8ceac6b6234c7706214fd39c1cd1e609a0528c19930080546001600160a01b031981166001600160a01b03848116918217845560405192169182907f8be0079c531659141344cd1fd0a4f28419497f9722a3daafe3b4186f6b6457e090600090a3505050565b7ff0c57e16840df040f15088dc2f81fe391c3923bec73e23a9662efc9c229c6a0054600160401b900460ff1661093657604051631afcd79f60e31b815260040160405180910390fd5b6131036130b2565b6001600160a01b0381166109c257604051631e4fbdf760e01b815260006004820152602401610502565b6121056130b2565b61313d6130b2565b600080516020613f1e833981519152805460ff19169055565b6000806000806020600086516020880160008a5af192503d9150600051905082801561319b5750811561318c578060011461319b565b6000866001600160a01b03163b115b93505050505b92915050565b806001600160a01b03163b6000036131dd57604051634c9c8ce360e01b81526001600160a01b0382166004820152602401610502565b600080516020613efe83398151915280546001600160a01b0319166001600160a01b0392909216919091179055565b6060600080846001600160a01b031684604051613229919061399f565b600060405180830381855af49150503d8060008114613264576040519150601f19603f3d011682016040523d82523d6000602084013e613269565b606091505b50915091506132798583836132a1565b95945050505050565b34156109365760405163b398979f60e01b815260040160405180910390fd5b6060826132b6576132b182613300565b6132f9565b81511580156132cd57506001600160a01b0384163b155b156132f657604051639996b31560e01b81526001600160a01b0385166004820152602401610502565b50805b9392505050565b8051156133105780518082602001fd5b60405163d6bda27560e01b815260040160405180910390fd5b508054613335906139bb565b6000825580601f10613345575050565b601f0160209004906000526020600020908101906109cb91905b80821115613373576000815560010161335f565b5090565b60008083601f84011261338957600080fd5b5081356001600160401b038111156133a057600080fd5b6020830191508360208260051b85010111156133bb57600080fd5b9250929050565b6001600160a01b03811681146109cb57600080fd5b600080600080600080600060c0888a0312156133f257600080fd5b87356001600160401b0381111561340857600080fd5b6134148a828b01613377565b9098509650506020880135613428816133c2565b945060408801359350606088013592506080880135613446816133c2565b8092505060a0880135905092959891949750929550565b60006040820184835260206040602085015281855180845260608601915060208701935060005b818110156134a057845183529383019391830191600101613484565b5090979650505050505050565b60008060008060008060008060e0898b0312156134c957600080fd5b88356001600160401b038111156134df57600080fd5b6134eb8b828c01613377565b90995097505060208901356134ff816133c2565b9550604089013561350f816133c2565b9450606089013593506080890135925060a089013561352d816133c2565b8092505060c089013590509295985092959890939650565b803561ffff8116811461355757600080fd5b919050565b60006020828403121561356e57600080fd5b6132f982613545565b634e487b7160e01b600052604160045260246000fd5b60405160c081016001600160401b03811182821017156135af576135af613577565b60405290565b604051601f8201601f191681016001600160401b03811182821017156135dd576135dd613577565b604052919050565b600082601f8301126135f657600080fd5b81356001600160401b0381111561360f5761360f613577565b613622601f8201601f19166020016135b5565b81815284602083860101111561363757600080fd5b816020850160208301376000918101602001919091529392505050565b6000806040838503121561366757600080fd5b8235613672816133c2565b915060208301356001600160401b0381111561368d57600080fd5b613699858286016135e5565b9150509250929050565b6000602082840312156136b557600080fd5b81356132f9816133c2565b60005b838110156136db5781810151838201526020016136c3565b50506000910152565b600081518084526136fc8160208601602086016136c0565b601f01601f19169290920160200192915050565b6020815260006132f960208301846136e4565b61ffff87811682528616602082015284151560408201526001600160a01b0384811660608301528316608082015260c060a08201819052600090612f0d908301846136e4565b6000806000806060858703121561377f57600080fd5b84356001600160401b0381111561379557600080fd5b6137a187828801613377565b90955093505060208501356137b5816133c2565b915060408501356137c5816133c2565b939692955090935050565b60008060008060008060a087890312156137e957600080fd5b6137f287613545565b955061380060208801613545565b94506040870135613810816133c2565b93506060870135613820816133c2565b925060808701356001600160401b038082111561383c57600080fd5b818901915089601f83011261385057600080fd5b81358181111561385f57600080fd5b8a602082850101111561387157600080fd5b6020830194508093505050509295509295509295565b602080825260139082015272151c985b9cd858dd1a5bdb88195e1c1a5c9959606a1b604082015260600190565b602080825260129082015271496e76616c696420746f206164647265737360701b604082015260600190565b60208082526019908201527f496e76616c696420616d6f756e744f7574457870656374656400000000000000604082015260600190565b634e487b7160e01b600052601160045260246000fd5b818103818111156131a1576131a1613917565b6001600160a01b03969096168652602086019490945260408501929092526060840152608083015260a082015260c00190565b602080825260129082015271111156081b9bdd081c9959da5cdd195c995960721b604082015260600190565b600082516139b18184602087016136c0565b9190910192915050565b600181811c908216806139cf57607f821691505b6020821081036139ef57634e487b7160e01b600052602260045260246000fd5b50919050565b634e487b7160e01b600052603260045260246000fd5b6000823560be198336030181126139b157600080fd5b803560ff8116811461355757600080fd5b600060c08236031215613a4457600080fd5b613a4c61358d565b613a5583613545565b8152613a6360208401613a21565b60208201526040830135613a76816133c2565b60408201526060830135613a89816133c2565b60608201526080838101359082015260a08301356001600160401b03811115613ab157600080fd5b613abd368286016135e5565b60a08301525092915050565b80820281158282048414176131a1576131a1613917565b600082613afd57634e487b7160e01b600052601260045260246000fd5b500490565b60ff82811682821603908111156131a1576131a1613917565b808201808211156131a1576131a1613917565b601f82111561237c576000816000526020600020601f850160051c81016020861015613b575750805b601f850160051c820191505b81811015613b7657828155600101613b63565b505050505050565b81516001600160401b03811115613b9757613b97613577565b613bab81613ba584546139bb565b84613b2e565b602080601f831160018114613be05760008415613bc85750858301515b600019600386901b1c1916600185901b178555613b76565b600085815260208120601f198616915b82811015613c0f57888601518255948401946001909101908401613bf0565b5085821015613c2d5787850151600019600388901b60f8161c191681555b5050505050600190811b01905550565b6020808252600d908201526c496e76616c696420726f75746560981b604082015260600190565b600060c08236031215613c7657600080fd5b613c7e61358d565b613c8783613545565b81526020830135613c97816133c2565b60208201526040830135613caa816133c2565b80604083015250606083013560608201526080830135608082015260a08301356001600160401b03811115613ab157600080fd5b600060208284031215613cf057600080fd5b5051919050565b600060208284031215613d0957600080fd5b6132f982613a21565b60008151808452602080850194506020840160005b83811015613d4c5781516001600160a01b031687529582019590820190600101613d27565b509495945050505050565b828152604060208201526000611c096040830184613d12565b60006020808385031215613d8357600080fd5b82516001600160401b0380821115613d9a57600080fd5b818501915085601f830112613dae57600080fd5b815181811115613dc057613dc0613577565b8060051b9150613dd18483016135b5565b8181529183018401918481019088841115613deb57600080fd5b938501935b83851015612f0d57845182529385019390850190613df0565b60008060408385031215613e1c57600080fd5b825162ffffff81168114613e2f57600080fd5b6020840151909250613e40816133c2565b809150509250929050565b60008060008060808587031215613e6157600080fd5b845193506020850151613e73816133c2565b604086015190935063ffffffff81168114613e8d57600080fd5b6060959095015193969295505050565b60008060408385031215613eb057600080fd5b82518060020b8114613e2f57600080fd5b85815284602082015260a060408201526000613ee060a0830186613d12565b6001600160a01b039490941660608301525060800152939250505056fe360894a13ba1a3210667c828492db98dca3e2076cc3735a920a3ca505d382bbccd5ed15c6e187e77e9aee88184c21f4f2182ab5827cb3b7e07fbedcd63f033009b779b17422d0df92223018b32b4d1fa46e071723d6817e2486d003becc55f00a26469706673582212204ea04b41aad190f95cd8fe3f37c89f4e541777de4100b9b0f45a549c0e6a76a164736f6c63430008160033",
  "linkReferences": {},
  "deployedLinkReferences": {}
}