{
  "_format": "hh-sol-artifact-1",
  "contractName": "DCAOrderBook",
  "sourceName": "contracts/strategy/DCAOrderBook.sol",
  "abi": [
    {
      "inputs": [
        {
          "internalType": "address",
          "name": "_aggregator",
          "type": "address"
        },
        {
          "internalType": "address",
          "name": "_feeTo",
          "type": "address"
        }
      ],
      "stateMutability": "nonpayable",
      "type": "constructor"
    },
    {
      "inputs": [],
      "name": "AccessControlBadConfirmation",
      "type": "error"
    },
    {
      "inputs": [
        {
          "internalType": "uint48",
          "name": "schedule",
          "type": "uint48"
        }
      ],
      "name": "AccessControlEnforcedDefaultAdminDelay",
      "type": "error"
    },
    {
      "inputs": [],
      "name": "AccessControlEnforcedDefaultAdminRules",
      "type": "error"
    },
    {
      "inputs": [
        {
          "internalType": "address",
          "name": "defaultAdmin",
          "type": "address"
        }
      ],
      "name": "AccessControlInvalidDefaultAdmin",
      "type": "error"
    },
    {
      "inputs": [
        {
          "internalType": "address",
          "name": "account",
          "type": "address"
        },
        {
          "internalType": "bytes32",
          "name": "neededRole",
          "type": "bytes32"
        }
      ],
      "name": "AccessControlUnauthorizedAccount",
      "type": "error"
    },
    {
      "inputs": [],
      "name": "EnforcedPause",
      "type": "error"
    },
    {
      "inputs": [],
      "name": "ExpectedPause",
      "type": "error"
    },
    {
      "inputs": [],
      "name": "ReentrancyGuardReentrantCall",
      "type": "error"
    },
    {
      "inputs": [
        {
          "internalType": "uint8",
          "name": "bits",
          "type": "uint8"
        },
        {
          "internalType": "uint256",
          "name": "value",
          "type": "uint256"
        }
      ],
      "name": "SafeCastOverflowedUintDowncast",
      "type": "error"
    },
    {
      "inputs": [
        {
          "internalType": "address",
          "name": "token",
          "type": "address"
        }
      ],
      "name": "SafeERC20FailedOperation",
      "type": "error"
    },
    {
      "anonymous": false,
      "inputs": [
        {
          "indexed": true,
          "internalType": "address",
          "name": "newAggregator",
          "type": "address"
        }
      ],
      "name": "AggregatorUpdated",
      "type": "event"
    },
    {
      "anonymous": false,
      "inputs": [
        {
          "components": [
            {
              "internalType": "address",
              "name": "account",
              "type": "address"
            },
            {
              "internalType": "uint256",
              "name": "index",
              "type": "uint256"
            },
            {
              "internalType": "uint256",
              "name": "orderType",
              "type": "uint256"
            },
            {
              "internalType": "uint256",
              "name": "executeFee",
              "type": "uint256"
            }
          ],
          "indexed": false,
          "internalType": "struct IOrder.Order",
          "name": "order",
          "type": "tuple"
        },
        {
          "indexed": false,
          "internalType": "uint256",
          "name": "refundAmountIn",
          "type": "uint256"
        },
        {
          "indexed": false,
          "internalType": "uint256",
          "name": "refundExecuteFee",
          "type": "uint256"
        },
        {
          "indexed": false,
          "internalType": "uint256",
          "name": "refundOrderFee",
          "type": "uint256"
        }
      ],
      "name": "DCAOrderCancelled",
      "type": "event"
    },
    {
      "anonymous": false,
      "inputs": [
        {
          "components": [
            {
              "internalType": "address",
              "name": "account",
              "type": "address"
            },
            {
              "internalType": "uint256",
              "name": "index",
              "type": "uint256"
            },
            {
              "internalType": "uint256",
              "name": "orderType",
              "type": "uint256"
            },
            {
              "internalType": "uint256",
              "name": "executeFee",
              "type": "uint256"
            }
          ],
          "indexed": false,
          "internalType": "struct IOrder.Order",
          "name": "order",
          "type": "tuple"
        },
        {
          "indexed": true,
          "internalType": "address",
          "name": "tokenIn",
          "type": "address"
        },
        {
          "indexed": true,
          "internalType": "address",
          "name": "tokenOut",
          "type": "address"
        },
        {
          "indexed": false,
          "internalType": "uint256",
          "name": "amountIn",
          "type": "uint256"
        },
        {
          "indexed": false,
          "internalType": "uint256",
          "name": "orderFee",
          "type": "uint256"
        },
        {
          "indexed": false,
          "internalType": "uint256",
          "name": "amountInPerInterval",
          "type": "uint256"
        },
        {
          "indexed": false,
          "internalType": "uint256",
          "name": "orderFeePerInterval",
          "type": "uint256"
        },
        {
          "indexed": false,
          "internalType": "uint64",
          "name": "intervals",
          "type": "uint64"
        },
        {
          "indexed": false,
          "internalType": "uint64",
          "name": "intervalDuration",
          "type": "uint64"
        }
      ],
      "name": "DCAOrderCreated",
      "type": "event"
    },
    {
      "anonymous": false,
      "inputs": [
        {
          "components": [
            {
              "internalType": "address",
              "name": "account",
              "type": "address"
            },
            {
              "internalType": "uint256",
              "name": "index",
              "type": "uint256"
            },
            {
              "internalType": "uint256",
              "name": "orderType",
              "type": "uint256"
            },
            {
              "internalType": "uint256",
              "name": "executeFee",
              "type": "uint256"
            }
          ],
          "indexed": false,
          "internalType": "struct IOrder.Order",
          "name": "order",
          "type": "tuple"
        }
      ],
      "name": "DCAOrderExecuted",
      "type": "event"
    },
    {
      "anonymous": false,
      "inputs": [
        {
          "components": [
            {
              "internalType": "address",
              "name": "account",
              "type": "address"
            },
            {
              "internalType": "uint256",
              "name": "index",
              "type": "uint256"
            },
            {
              "internalType": "uint256",
              "name": "orderType",
              "type": "uint256"
            },
            {
              "internalType": "uint256",
              "name": "executeFee",
              "type": "uint256"
            }
          ],
          "indexed": false,
          "internalType": "struct IOrder.Order",
          "name": "order",
          "type": "tuple"
        },
        {
          "indexed": false,
          "internalType": "uint256",
          "name": "latestIntervalIndex",
          "type": "uint256"
        },
        {
          "indexed": false,
          "internalType": "uint256",
          "name": "refundAmountIn",
          "type": "uint256"
        },
        {
          "indexed": false,
          "internalType": "uint256",
          "name": "refundExecuteFee",
          "type": "uint256"
        },
        {
          "indexed": false,
          "internalType": "uint256",
          "name": "refundOrderFee",
          "type": "uint256"
        }
      ],
      "name": "DCAOrderRefund",
      "type": "event"
    },
    {
      "anonymous": false,
      "inputs": [
        {
          "components": [
            {
              "internalType": "address",
              "name": "account",
              "type": "address"
            },
            {
              "internalType": "uint256",
              "name": "index",
              "type": "uint256"
            },
            {
              "internalType": "uint256",
              "name": "orderType",
              "type": "uint256"
            },
            {
              "internalType": "uint256",
              "name": "executeFee",
              "type": "uint256"
            }
          ],
          "indexed": false,
          "internalType": "struct IOrder.Order",
          "name": "order",
          "type": "tuple"
        },
        {
          "indexed": false,
          "internalType": "uint256",
          "name": "intervalIndex",
          "type": "uint256"
        },
        {
          "indexed": false,
          "internalType": "uint256",
          "name": "amountIn",
          "type": "uint256"
        },
        {
          "indexed": false,
          "internalType": "uint256",
          "name": "amountOut",
          "type": "uint256"
        }
      ],
      "name": "DCAOrderStateUpdated",
      "type": "event"
    },
    {
      "anonymous": false,
      "inputs": [],
      "name": "DefaultAdminDelayChangeCanceled",
      "type": "event"
    },
    {
      "anonymous": false,
      "inputs": [
        {
          "indexed": false,
          "internalType": "uint48",
          "name": "newDelay",
          "type": "uint48"
        },
        {
          "indexed": false,
          "internalType": "uint48",
          "name": "effectSchedule",
          "type": "uint48"
        }
      ],
      "name": "DefaultAdminDelayChangeScheduled",
      "type": "event"
    },
    {
      "anonymous": false,
      "inputs": [],
      "name": "DefaultAdminTransferCanceled",
      "type": "event"
    },
    {
      "anonymous": false,
      "inputs": [
        {
          "indexed": true,
          "internalType": "address",
          "name": "newAdmin",
          "type": "address"
        },
        {
          "indexed": false,
          "internalType": "uint48",
          "name": "acceptSchedule",
          "type": "uint48"
        }
      ],
      "name": "DefaultAdminTransferScheduled",
      "type": "event"
    },
    {
      "anonymous": false,
      "inputs": [
        {
          "indexed": false,
          "internalType": "uint256",
          "name": "newMinExecuteFee",
          "type": "uint256"
        }
      ],
      "name": "ExecuteFeeUpdated",
      "type": "event"
    },
    {
      "anonymous": false,
      "inputs": [
        {
          "indexed": true,
          "internalType": "address",
          "name": "newFeeTo",
          "type": "address"
        }
      ],
      "name": "FeeToUpdated",
      "type": "event"
    },
    {
      "anonymous": false,
      "inputs": [
        {
          "indexed": false,
          "internalType": "uint64",
          "name": "newTimeout",
          "type": "uint64"
        }
      ],
      "name": "IntervalTimeoutUpdated",
      "type": "event"
    },
    {
      "anonymous": false,
      "inputs": [
        {
          "indexed": true,
          "internalType": "address",
          "name": "keeper",
          "type": "address"
        }
      ],
      "name": "KeeperAdded",
      "type": "event"
    },
    {
      "anonymous": false,
      "inputs": [
        {
          "indexed": true,
          "internalType": "address",
          "name": "keeper",
          "type": "address"
        }
      ],
      "name": "KeeperRemoved",
      "type": "event"
    },
    {
      "anonymous": false,
      "inputs": [
        {
          "indexed": false,
          "internalType": "uint64",
          "name": "newDuration",
          "type": "uint64"
        }
      ],
      "name": "MaxIntervalDurationUpdated",
      "type": "event"
    },
    {
      "anonymous": false,
      "inputs": [
        {
          "indexed": false,
          "internalType": "uint64",
          "name": "newIntervals",
          "type": "uint64"
        }
      ],
      "name": "MaxIntervalsUpdated",
      "type": "event"
    },
    {
      "anonymous": false,
      "inputs": [
        {
          "indexed": false,
          "internalType": "uint256",
          "name": "maximumNumberOfOrders",
          "type": "uint256"
        }
      ],
      "name": "MaximumNumberOfOrdersUpdated",
      "type": "event"
    },
    {
      "anonymous": false,
      "inputs": [
        {
          "indexed": false,
          "internalType": "uint64",
          "name": "newDuration",
          "type": "uint64"
        }
      ],
      "name": "MinIntervalDurationUpdated",
      "type": "event"
    },
    {
      "anonymous": false,
      "inputs": [
        {
          "indexed": false,
          "internalType": "uint64",
          "name": "newIntervals",
          "type": "uint64"
        }
      ],
      "name": "MinIntervalsUpdated",
      "type": "event"
    },
    {
      "anonymous": false,
      "inputs": [
        {
          "indexed": false,
          "internalType": "uint256",
          "name": "newOrderFeeRate",
          "type": "uint256"
        }
      ],
      "name": "OrderFeeRateUpdated",
      "type": "event"
    },
    {
      "anonymous": false,
      "inputs": [
        {
          "indexed": false,
          "internalType": "address",
          "name": "account",
          "type": "address"
        }
      ],
      "name": "Paused",
      "type": "event"
    },
    {
      "anonymous": false,
      "inputs": [
        {
          "indexed": true,
          "internalType": "bytes32",
          "name": "role",
          "type": "bytes32"
        },
        {
          "indexed": true,
          "internalType": "bytes32",
          "name": "previousAdminRole",
          "type": "bytes32"
        },
        {
          "indexed": true,
          "internalType": "bytes32",
          "name": "newAdminRole",
          "type": "bytes32"
        }
      ],
      "name": "RoleAdminChanged",
      "type": "event"
    },
    {
      "anonymous": false,
      "inputs": [
        {
          "indexed": true,
          "internalType": "bytes32",
          "name": "role",
          "type": "bytes32"
        },
        {
          "indexed": true,
          "internalType": "address",
          "name": "account",
          "type": "address"
        },
        {
          "indexed": true,
          "internalType": "address",
          "name": "sender",
          "type": "address"
        }
      ],
      "name": "RoleGranted",
      "type": "event"
    },
    {
      "anonymous": false,
      "inputs": [
        {
          "indexed": true,
          "internalType": "bytes32",
          "name": "role",
          "type": "bytes32"
        },
        {
          "indexed": true,
          "internalType": "address",
          "name": "account",
          "type": "address"
        },
        {
          "indexed": true,
          "internalType": "address",
          "name": "sender",
          "type": "address"
        }
      ],
      "name": "RoleRevoked",
      "type": "event"
    },
    {
      "anonymous": false,
      "inputs": [
        {
          "indexed": false,
          "internalType": "uint64",
          "name": "newTolerance",
          "type": "uint64"
        }
      ],
      "name": "TimeWindowToleranceUpdated",
      "type": "event"
    },
    {
      "anonymous": false,
      "inputs": [
        {
          "indexed": false,
          "internalType": "address",
          "name": "account",
          "type": "address"
        }
      ],
      "name": "Unpaused",
      "type": "event"
    },
    {
      "inputs": [],
      "name": "DCA_ORDER_TYPE",
      "outputs": [
        {
          "internalType": "uint256",
          "name": "",
          "type": "uint256"
        }
      ],
      "stateMutability": "view",
      "type": "function"
    },
    {
      "inputs": [],
      "name": "DEFAULT_ADMIN_ROLE",
      "outputs": [
        {
          "internalType": "bytes32",
          "name": "",
          "type": "bytes32"
        }
      ],
      "stateMutability": "view",
      "type": "function"
    },
    {
      "inputs": [],
      "name": "FEE_PRECISION",
      "outputs": [
        {
          "internalType": "uint256",
          "name": "",
          "type": "uint256"
        }
      ],
      "stateMutability": "view",
      "type": "function"
    },
    {
      "inputs": [],
      "name": "KEEPER_ROLE",
      "outputs": [
        {
          "internalType": "bytes32",
          "name": "",
          "type": "bytes32"
        }
      ],
      "stateMutability": "view",
      "type": "function"
    },
    {
      "inputs": [],
      "name": "MAX_EXECUTE_FEE",
      "outputs": [
        {
          "internalType": "uint256",
          "name": "",
          "type": "uint256"
        }
      ],
      "stateMutability": "view",
      "type": "function"
    },
    {
      "inputs": [],
      "name": "WETH",
      "outputs": [
        {
          "internalType": "contract IWETH",
          "name": "",
          "type": "address"
        }
      ],
      "stateMutability": "view",
      "type": "function"
    },
    {
      "inputs": [],
      "name": "acceptDefaultAdminTransfer",
      "outputs": [],
      "stateMutability": "nonpayable",
      "type": "function"
    },
    {
      "inputs": [
        {
          "internalType": "address",
          "name": "tokenIn",
          "type": "address"
        },
        {
          "internalType": "address",
          "name": "tokenOut",
          "type": "address"
        },
        {
          "internalType": "uint256",
          "name": "amountIn",
          "type": "uint256"
        },
        {
          "internalType": "uint64",
          "name": "intervals",
          "type": "uint64"
        },
        {
          "internalType": "uint64",
          "name": "intervalDuration",
          "type": "uint64"
        }
      ],
      "name": "addDCAOrder",
      "outputs": [],
      "stateMutability": "payable",
      "type": "function"
    },
    {
      "inputs": [
        {
          "internalType": "address",
          "name": "keeper",
          "type": "address"
        }
      ],
      "name": "addKeeper",
      "outputs": [],
      "stateMutability": "nonpayable",
      "type": "function"
    },
    {
      "inputs": [],
      "name": "aggregator",
      "outputs": [
        {
          "internalType": "contract IAggregator",
          "name": "",
          "type": "address"
        }
      ],
      "stateMutability": "view",
      "type": "function"
    },
    {
      "inputs": [
        {
          "internalType": "address",
          "name": "newAdmin",
          "type": "address"
        }
      ],
      "name": "beginDefaultAdminTransfer",
      "outputs": [],
      "stateMutability": "nonpayable",
      "type": "function"
    },
    {
      "inputs": [
        {
          "internalType": "uint256",
          "name": "index",
          "type": "uint256"
        }
      ],
      "name": "cancelDCAOrder",
      "outputs": [],
      "stateMutability": "nonpayable",
      "type": "function"
    },
    {
      "inputs": [],
      "name": "cancelDefaultAdminTransfer",
      "outputs": [],
      "stateMutability": "nonpayable",
      "type": "function"
    },
    {
      "inputs": [
        {
          "internalType": "address",
          "name": "account",
          "type": "address"
        },
        {
          "internalType": "uint256",
          "name": "index",
          "type": "uint256"
        }
      ],
      "name": "cancelUserDCAOrder",
      "outputs": [],
      "stateMutability": "nonpayable",
      "type": "function"
    },
    {
      "inputs": [
        {
          "internalType": "uint48",
          "name": "newDelay",
          "type": "uint48"
        }
      ],
      "name": "changeDefaultAdminDelay",
      "outputs": [],
      "stateMutability": "nonpayable",
      "type": "function"
    },
    {
      "inputs": [],
      "name": "config",
      "outputs": [
        {
          "internalType": "uint256",
          "name": "currentNumberOfOrders",
          "type": "uint256"
        },
        {
          "internalType": "uint256",
          "name": "maximumNumberOfOrders",
          "type": "uint256"
        },
        {
          "internalType": "uint256",
          "name": "minExecuteFeePerInterval",
          "type": "uint256"
        },
        {
          "internalType": "uint256",
          "name": "orderFeeRate",
          "type": "uint256"
        },
        {
          "internalType": "address",
          "name": "feeTo",
          "type": "address"
        },
        {
          "internalType": "uint64",
          "name": "minIntervals",
          "type": "uint64"
        },
        {
          "internalType": "uint64",
          "name": "maxIntervals",
          "type": "uint64"
        },
        {
          "internalType": "uint64",
          "name": "minIntervalDuration",
          "type": "uint64"
        },
        {
          "internalType": "uint64",
          "name": "maxIntervalDuration",
          "type": "uint64"
        },
        {
          "internalType": "uint64",
          "name": "timeWindowTolerance",
          "type": "uint64"
        },
        {
          "internalType": "uint64",
          "name": "intervalTimeout",
          "type": "uint64"
        }
      ],
      "stateMutability": "view",
      "type": "function"
    },
    {
      "inputs": [
        {
          "internalType": "address",
          "name": "",
          "type": "address"
        },
        {
          "internalType": "uint256",
          "name": "",
          "type": "uint256"
        }
      ],
      "name": "dcaOrders",
      "outputs": [
        {
          "components": [
            {
              "internalType": "address",
              "name": "account",
              "type": "address"
            },
            {
              "internalType": "uint256",
              "name": "index",
              "type": "uint256"
            },
            {
              "internalType": "uint256",
              "name": "orderType",
              "type": "uint256"
            },
            {
              "internalType": "uint256",
              "name": "executeFee",
              "type": "uint256"
            }
          ],
          "internalType": "struct IOrder.Order",
          "name": "order",
          "type": "tuple"
        },
        {
          "internalType": "address",
          "name": "tokenIn",
          "type": "address"
        },
        {
          "internalType": "address",
          "name": "tokenOut",
          "type": "address"
        },
        {
          "internalType": "uint256",
          "name": "amountInPerInterval",
          "type": "uint256"
        },
        {
          "internalType": "uint256",
          "name": "remainingAmountIn",
          "type": "uint256"
        },
        {
          "internalType": "uint256",
          "name": "filledAmountOut",
          "type": "uint256"
        },
        {
          "internalType": "uint256",
          "name": "nextExecuteTime",
          "type": "uint256"
        },
        {
          "internalType": "uint256",
          "name": "executeFeePerInterval",
          "type": "uint256"
        },
        {
          "internalType": "uint256",
          "name": "remainingExecuteFee",
          "type": "uint256"
        },
        {
          "internalType": "uint64",
          "name": "intervals",
          "type": "uint64"
        },
        {
          "internalType": "uint64",
          "name": "intervalDuration",
          "type": "uint64"
        },
        {
          "internalType": "uint64",
          "name": "executedIntervals",
          "type": "uint64"
        }
      ],
      "stateMutability": "view",
      "type": "function"
    },
    {
      "inputs": [
        {
          "internalType": "address",
          "name": "",
          "type": "address"
        }
      ],
      "name": "dcaOrdersIndex",
      "outputs": [
        {
          "internalType": "uint256",
          "name": "",
          "type": "uint256"
        }
      ],
      "stateMutability": "view",
      "type": "function"
    },
    {
      "inputs": [],
      "name": "defaultAdmin",
      "outputs": [
        {
          "internalType": "address",
          "name": "",
          "type": "address"
        }
      ],
      "stateMutability": "view",
      "type": "function"
    },
    {
      "inputs": [],
      "name": "defaultAdminDelay",
      "outputs": [
        {
          "internalType": "uint48",
          "name": "",
          "type": "uint48"
        }
      ],
      "stateMutability": "view",
      "type": "function"
    },
    {
      "inputs": [],
      "name": "defaultAdminDelayIncreaseWait",
      "outputs": [
        {
          "internalType": "uint48",
          "name": "",
          "type": "uint48"
        }
      ],
      "stateMutability": "view",
      "type": "function"
    },
    {
      "inputs": [
        {
          "internalType": "address",
          "name": "account",
          "type": "address"
        },
        {
          "internalType": "uint256",
          "name": "index",
          "type": "uint256"
        },
        {
          "components": [
            {
              "internalType": "uint16",
              "name": "dexId",
              "type": "uint16"
            },
            {
              "internalType": "address",
              "name": "tokenIn",
              "type": "address"
            },
            {
              "internalType": "address",
              "name": "tokenOut",
              "type": "address"
            },
            {
              "internalType": "uint256",
              "name": "amountIn",
              "type": "uint256"
            },
            {
              "internalType": "uint256",
              "name": "amountOutMin",
              "type": "uint256"
            },
            {
              "internalType": "bytes",
              "name": "extraData",
              "type": "bytes"
            }
          ],
          "internalType": "struct IAggregator.SwapRoute[]",
          "name": "_routes",
          "type": "tuple[]"
        },
        {
          "internalType": "uint256",
          "name": "_amountIn",
          "type": "uint256"
        },
        {
          "internalType": "uint256",
          "name": "_amountOutMin",
          "type": "uint256"
        },
        {
          "internalType": "uint256",
          "name": "_amountOutExpected",
          "type": "uint256"
        },
        {
          "internalType": "address payable",
          "name": "_feeReceiver",
          "type": "address"
        }
      ],
      "name": "executeDCAOrder",
      "outputs": [],
      "stateMutability": "nonpayable",
      "type": "function"
    },
    {
      "inputs": [
        {
          "internalType": "address",
          "name": "account",
          "type": "address"
        },
        {
          "internalType": "uint256",
          "name": "index",
          "type": "uint256"
        }
      ],
      "name": "getDCAOrder",
      "outputs": [
        {
          "components": [
            {
              "components": [
                {
                  "internalType": "address",
                  "name": "account",
                  "type": "address"
                },
                {
                  "internalType": "uint256",
                  "name": "index",
                  "type": "uint256"
                },
                {
                  "internalType": "uint256",
                  "name": "orderType",
                  "type": "uint256"
                },
                {
                  "internalType": "uint256",
                  "name": "executeFee",
                  "type": "uint256"
                }
              ],
              "internalType": "struct IOrder.Order",
              "name": "order",
              "type": "tuple"
            },
            {
              "internalType": "address",
              "name": "tokenIn",
              "type": "address"
            },
            {
              "internalType": "address",
              "name": "tokenOut",
              "type": "address"
            },
            {
              "internalType": "uint256",
              "name": "amountInPerInterval",
              "type": "uint256"
            },
            {
              "internalType": "uint256",
              "name": "remainingAmountIn",
              "type": "uint256"
            },
            {
              "internalType": "uint256",
              "name": "filledAmountOut",
              "type": "uint256"
            },
            {
              "internalType": "uint256",
              "name": "nextExecuteTime",
              "type": "uint256"
            },
            {
              "internalType": "uint256",
              "name": "executeFeePerInterval",
              "type": "uint256"
            },
            {
              "internalType": "uint256",
              "name": "remainingExecuteFee",
              "type": "uint256"
            },
            {
              "internalType": "uint64",
              "name": "intervals",
              "type": "uint64"
            },
            {
              "internalType": "uint64",
              "name": "intervalDuration",
              "type": "uint64"
            },
            {
              "internalType": "uint64",
              "name": "executedIntervals",
              "type": "uint64"
            }
          ],
          "internalType": "struct IDCAOrderBook.DCAOrder",
          "name": "order",
          "type": "tuple"
        }
      ],
      "stateMutability": "view",
      "type": "function"
    },
    {
      "inputs": [
        {
          "internalType": "bytes32",
          "name": "role",
          "type": "bytes32"
        }
      ],
      "name": "getRoleAdmin",
      "outputs": [
        {
          "internalType": "bytes32",
          "name": "",
          "type": "bytes32"
        }
      ],
      "stateMutability": "view",
      "type": "function"
    },
    {
      "inputs": [
        {
          "internalType": "bytes32",
          "name": "role",
          "type": "bytes32"
        },
        {
          "internalType": "address",
          "name": "account",
          "type": "address"
        }
      ],
      "name": "grantRole",
      "outputs": [],
      "stateMutability": "nonpayable",
      "type": "function"
    },
    {
      "inputs": [
        {
          "internalType": "bytes32",
          "name": "role",
          "type": "bytes32"
        },
        {
          "internalType": "address",
          "name": "account",
          "type": "address"
        }
      ],
      "name": "hasRole",
      "outputs": [
        {
          "internalType": "bool",
          "name": "",
          "type": "bool"
        }
      ],
      "stateMutability": "view",
      "type": "function"
    },
    {
      "inputs": [],
      "name": "owner",
      "outputs": [
        {
          "internalType": "address",
          "name": "",
          "type": "address"
        }
      ],
      "stateMutability": "view",
      "type": "function"
    },
    {
      "inputs": [],
      "name": "pause",
      "outputs": [],
      "stateMutability": "nonpayable",
      "type": "function"
    },
    {
      "inputs": [],
      "name": "paused",
      "outputs": [
        {
          "internalType": "bool",
          "name": "",
          "type": "bool"
        }
      ],
      "stateMutability": "view",
      "type": "function"
    },
    {
      "inputs": [],
      "name": "pendingDefaultAdmin",
      "outputs": [
        {
          "internalType": "address",
          "name": "newAdmin",
          "type": "address"
        },
        {
          "internalType": "uint48",
          "name": "schedule",
          "type": "uint48"
        }
      ],
      "stateMutability": "view",
      "type": "function"
    },
    {
      "inputs": [],
      "name": "pendingDefaultAdminDelay",
      "outputs": [
        {
          "internalType": "uint48",
          "name": "newDelay",
          "type": "uint48"
        },
        {
          "internalType": "uint48",
          "name": "schedule",
          "type": "uint48"
        }
      ],
      "stateMutability": "view",
      "type": "function"
    },
    {
      "inputs": [
        {
          "internalType": "address",
          "name": "keeper",
          "type": "address"
        }
      ],
      "name": "removeKeeper",
      "outputs": [],
      "stateMutability": "nonpayable",
      "type": "function"
    },
    {
      "inputs": [
        {
          "internalType": "bytes32",
          "name": "role",
          "type": "bytes32"
        },
        {
          "internalType": "address",
          "name": "account",
          "type": "address"
        }
      ],
      "name": "renounceRole",
      "outputs": [],
      "stateMutability": "nonpayable",
      "type": "function"
    },
    {
      "inputs": [
        {
          "internalType": "bytes32",
          "name": "role",
          "type": "bytes32"
        },
        {
          "internalType": "address",
          "name": "account",
          "type": "address"
        }
      ],
      "name": "revokeRole",
      "outputs": [],
      "stateMutability": "nonpayable",
      "type": "function"
    },
    {
      "inputs": [],
      "name": "rollbackDefaultAdminDelay",
      "outputs": [],
      "stateMutability": "nonpayable",
      "type": "function"
    },
    {
      "inputs": [
        {
          "internalType": "address",
          "name": "newAggregator",
          "type": "address"
        }
      ],
      "name": "setAggregator",
      "outputs": [],
      "stateMutability": "nonpayable",
      "type": "function"
    },
    {
      "inputs": [
        {
          "internalType": "address",
          "name": "newFeeTo",
          "type": "address"
        }
      ],
      "name": "setFeeTo",
      "outputs": [],
      "stateMutability": "nonpayable",
      "type": "function"
    },
    {
      "inputs": [
        {
          "internalType": "uint64",
          "name": "newTimeout",
          "type": "uint64"
        }
      ],
      "name": "setIntervalTimeout",
      "outputs": [],
      "stateMutability": "nonpayable",
      "type": "function"
    },
    {
      "inputs": [
        {
          "internalType": "uint64",
          "name": "newDuration",
          "type": "uint64"
        }
      ],
      "name": "setMaxIntervalDuration",
      "outputs": [],
      "stateMutability": "nonpayable",
      "type": "function"
    },
    {
      "inputs": [
        {
          "internalType": "uint64",
          "name": "newIntervals",
          "type": "uint64"
        }
      ],
      "name": "setMaxIntervals",
      "outputs": [],
      "stateMutability": "nonpayable",
      "type": "function"
    },
    {
      "inputs": [
        {
          "internalType": "uint256",
          "name": "maximum",
          "type": "uint256"
        }
      ],
      "name": "setMaximumNumberOfOrders",
      "outputs": [],
      "stateMutability": "nonpayable",
      "type": "function"
    },
    {
      "inputs": [
        {
          "internalType": "uint256",
          "name": "newMinExecuteFee",
          "type": "uint256"
        }
      ],
      "name": "setMinExecuteFee",
      "outputs": [],
      "stateMutability": "nonpayable",
      "type": "function"
    },
    {
      "inputs": [
        {
          "internalType": "uint64",
          "name": "newDuration",
          "type": "uint64"
        }
      ],
      "name": "setMinIntervalDuration",
      "outputs": [],
      "stateMutability": "nonpayable",
      "type": "function"
    },
    {
      "inputs": [
        {
          "internalType": "uint64",
          "name": "newIntervals",
          "type": "uint64"
        }
      ],
      "name": "setMinIntervals",
      "outputs": [],
      "stateMutability": "nonpayable",
      "type": "function"
    },
    {
      "inputs": [
        {
          "internalType": "uint256",
          "name": "rate",
          "type": "uint256"
        }
      ],
      "name": "setOrderFeeRate",
      "outputs": [],
      "stateMutability": "nonpayable",
      "type": "function"
    },
    {
      "inputs": [
        {
          "internalType": "uint64",
          "name": "newTolerance",
          "type": "uint64"
        }
      ],
      "name": "setTimeWindowTolerance",
      "outputs": [],
      "stateMutability": "nonpayable",
      "type": "function"
    },
    {
      "inputs": [
        {
          "internalType": "bytes4",
          "name": "interfaceId",
          "type": "bytes4"
        }
      ],
      "name": "supportsInterface",
      "outputs": [
        {
          "internalType": "bool",
          "name": "",
          "type": "bool"
        }
      ],
      "stateMutability": "view",
      "type": "function"
    },
    {
      "inputs": [],
      "name": "unpause",
      "outputs": [],
      "stateMutability": "nonpayable",
      "type": "function"
    },
    {
      "stateMutability": "payable",
      "type": "receive"
    }
  ],
  "bytecode": "0x608034620002015762003c2d90601f38839003908101601f19168201906001600160401b0382118383101762000206578083916040958694855283398101031262000201576200005d602062000055836200021c565b92016200021c565b3315620001e957600180546001600160d01b0316610d2f60d71b1790556002546001600160a01b0390818116620001d8576001600160a01b03191633908117600255620000aa9062000231565b506001600355600454918184161562000194571691821562000150576001600160a81b0319909116600891821b610100600160a81b03161760045560c890556512309ce540006009556032600a55600b80546001600160e01b031916909117600160a11b179055781e0000000000278d00000000000000003c000000000000000a600c55600d80546001600160401b0319166107081790555161396a9081620002c38239f35b835162461bcd60e51b815260206004820152601560248201527f496e76616c696420666565546f206164647265737300000000000000000000006044820152606490fd5b845162461bcd60e51b815260206004820152601a60248201527f496e76616c69642061676772656761746f7220616464726573730000000000006044820152606490fd5b8451631fe1e13d60e11b8152600490fd5b8251636116401160e11b815260006004820152602490fd5b600080fd5b634e487b7160e01b600052604160045260246000fd5b51906001600160a01b03821682036200020157565b6001600160a01b031660008181527fad3228b676f7d3cd4284a5443f17f1962b36e491b30a40b2405849e597ba5fb5602052604081205490919060ff16620002be57818052816020526040822081835260205260408220600160ff1982541617905533917f2f8788117e7eff1d82e926ec794901d17c78024a50270940304540a733656f0d8180a4600190565b509056fe6080806040526004361015610042575b50361561001b57600080fd5b6005602160991b0119330161002c57005b634e487b7160e01b600052600160045260246000fd5b600090813560e01c90816301ffc9a714611f4457508063022d63fb14611f265780630aa6220b14611e9157806314ae9f2e14611de75780631c7d06d114611d3c578063245a7bfc14611d0f578063248a9ca314611ce357806327dd270814611c475780632c2cf06614611b3e5780632f2ff15d14611afb57806333ea858514611a5d578063364bc15a14611a3457806336568abe1461193f5780633e75080e146119065780633f4ba83a146118ae5780634032b72b14611804578063480f7a3e146117b65780635c975abb146117935780635fa4292714611701578063634e93da14611629578063649a5ec71461149f578063679b83e3146113fc57806379041824146113c657806379502c55146113325780637e2a187f146113165780638456cb59146112bb57806384ef8ffc146112925780638da5cb5b146112925780638ee07a0014610b7757806391d1485414610b2c5780639a563abd14610afe578063a1eda53c14610a9b578063a217fddf14610a7f578063ac03343014610a06578063ad5c4648146109e3578063ae022ceb14610933578063af7ac06514610910578063b7527a1814610864578063cc8463c814610839578063cefc14291461075e578063cf6eefb714610724578063d547741f146106cb578063d602b9fd14610666578063e3db60b7146105fc578063e63a391f146105df578063f46901ed14610538578063f9120af61461046c5763f94b653f0361000f57346104695760403660031901126104695760406101e09161027a611fbb565b8161016084516102898161205a565b85516102948161203f565b8381528360208201528387820152836060820152815282602082015282868201528260608201528260808201528260a08201528260c08201528260e0820152826101008201528261012082015282610140820152015260018060a01b0316815260056020528181206024358252602052206001600160401b0361016060405161031c8161205a565b82600c610328866120b2565b9586845260018060a01b03600482015416602085015260018060a01b0360058201541660408501526006810154606085015260078101546080850152600881015460a0850152600981015460c0850152600a81015460e0850152600b8101546101008501520154818116610120840152818160401c1661014084015260801c16828201526103df60405180956060809160018060a01b03815116845260208101516020850152604081015160408501520151910152565b60018060a01b03602082015116608085015260018060a01b0360408201511660a0850152606081015160c0850152608081015160e085015260a081015161010085015260c081015161012085015260e081015161014085015261010081015182850152826101208201511661018085015282610140820151166101a08501520151166101c0820152f35b80fd5b503461046957602036600319011261046957610486611fbb565b61048e6130f4565b61049661351a565b6001600160a01b0381169081156104f35760048054610100600160a81b03191660089290921b610100600160a81b03169190911790557f602cec4b1583b07d071161da5eb9589444d2459201e2fab7753dc941e9351c218280a280f35b60405162461bcd60e51b815260206004820152601a60248201527f496e76616c69642061676772656761746f7220616464726573730000000000006044820152606490fd5b503461046957602036600319011261046957610552611fbb565b61055a6130f4565b6001600160a01b031680156105a257600b80546001600160a01b031916821790557f9887df018dfa75103faf0f1388028e55a1124783c285d8d2cbcf62a067a6b8448280a280f35b60405162461bcd60e51b8152602060048201526015602482015274496e76616c696420666565546f206164647265737360581b6044820152606490fd5b503461046957806003193601126104695760206040516127108152f35b5034610469576020366003190112610469577f49c8346a9c9a1271e86129e8705c60c16aa7da8117627a321f33e0f8de92220560206001600160401b03610641612000565b6106496130f4565b16806001600160401b0319600d541617600d55604051908152a180f35b503461046957806003193601126104695761067f6130f4565b600180546001600160d01b0319811690915560a01c65ffffffffffff166106a35780f35b7f8886ebfc4259abdbc16601dd8fb5678e54878f47b3c34836cfc51154a9605109600080a180f35b5034610469576040366003190112610469576004356106e8611fd6565b8115610712578161070e928452836020526107096001604086200154613196565b6131bc565b5080f35b604051631fe1e13d60e11b8152600490fd5b5034610469578060031936011261046957600154604080516001600160a01b038316815260a09290921c65ffffffffffff16602083015290f35b50346104695780600319360112610469576001546001600160a01b039081163303610821576001546001600160a01b0381169060a01c65ffffffffffff1680158015610817575b6107ff57506002546107ce836bffffffffffffffffffffffff60a01b92838116600255166135d7565b5060025490838216610712576107eb9383169116176002556137dd565b50600180546001600160d01b031916905580f35b602490604051906319ca5ebb60e01b82526004820152fd5b50428110156107a5565b604051636116401160e11b8152336004820152602490fd5b503461046957806003193601126104695760206108546130bb565b65ffffffffffff60405191168152f35b5034610469576020366003190112610469577f90c6dbc5b62eb431e4137520f58fe24d94c014e55d905202930964db7559115960206108a1612000565b6108a96130f4565b6001600160401b03906108c98282169283159081156108fe575b5061212b565b600c805467ffffffffffffffff60801b191660809290921b67ffffffffffffffff60801b16919091179055604051908152a180f35b9050600c5460401c16831015386108c3565b50346104695780600319360112610469576020604051670de0b6b3a76400008152f35b5034610469576020366003190112610469577ffdee2e1d075098806245685251c8879ed540ac86ddf40d69b4ed733f2bf5e98c6020610970612000565b6109786130f4565b6001600160401b03908181169161099160018411612fb0565b600c5416806109d1575b50600b805467ffffffffffffffff60a01b191660a09290921b67ffffffffffffffff60a01b16919091179055604051908152a180f35b6109dd90831115613035565b3861099b565b50346104695780600319360112610469576040516006602160991b018152602090f35b5034610469576020366003190112610469577f97f38c8c2d3fd3d0fc57f3e5a2459f58a9596557a8700d619f5ceb8a952cdcc76020610a43612000565b610a4b6130f4565b600c80546001600160c01b031660c083901b6001600160c01b0319161790556040516001600160401b03919091168152a180f35b5034610469578060031936011261046957602090604051908152f35b50346104695780600319360112610469576002548060d01c9182151580610af4575b15610aeb575060a01c65ffffffffffff165b6040805165ffffffffffff928316815292909116602083015290f35b91505080610acf565b5042831015610abd565b503461046957602036600319011261046957610b18613201565b610b246004353361329a565b600160035580f35b5034610469576040366003190112610469576040610b48611fd6565b91600435815280602052209060018060a01b0316600052602052602060ff604060002054166040519015158152f35b5060a036600319011261046957610b8c611fbb565b610b94611fd6565b606435906001600160401b038216820361128e576084356001600160401b038116810361128a57610bc3613201565b610bcb613224565b610be36001600160a01b038581169084161415612ff4565b6001600160a01b0384166006602160991b011480611279575b801561124e575b610c0d9015612ff4565b6044351561121657600854801590811561120a575b50156111c557610c4b6001600160401b03600b5460a01c166001600160401b0385161015612fb0565b610c966001600160401b03600c54610c6f82821680159081156111b8575b50613035565b610c82828260401c16838616101561212b565b60801c1680159081156111a4575b5061216e565b6001600160a01b03841661113557610cb0604435346122e2565b926006602160991b013b1561113157604051630d0e30db60e41b815286816004816044356006602160991b015af1801561112657611113575b505b610d006001600160401b038216600954613079565b84106110ce57612710610d17600a54604435613079565b0460443581101561109a576001600160a01b03861661109057610d52816006602160991b015b600b546001600160a01b039081169116613242565b610d5e816044356122e2565b90610d726001600160401b0384168361308c565b90811561104b57338952600660205260408920549660405197610d948961203f565b3389528060208a015260408901600a90528160608a01526009549160405192610dbc8461205a565b8a8452600160a01b600190038c166020850152600160a01b600190038a1660408501528560608501528660808501528c60a08501524260c085015260e08401526101008301526001600160401b0386166101208301526001600160401b0387166101408301528a610160830152338b52600560205260408b20908b5260205260408a208151600160a01b60019003815116906bffffffffffffffffffffffff60a01b9182845416178355602081015160018401556040810151600284015560600151600383015560048201600160a01b60019003602085015116828254161790556005820190600160a01b6001900360408501511690825416179055606082015160068201556080820151600782015560a0820151600882015560c0820151600982015560e0820151600a820155610100820151600b820155600c01906101208101516001600160401b031682549061014083015160401b67ffffffffffffffff60401b16916fffffffffffffffffffffffffffffffff19161717825561016001516001600160401b0316610f7291908154906001600160401b0360801b9060801b16906001600160401b0360801b1916179055565b3389526006602052604089208054610f89906130ac565b9055600754610f97906130ac565b600755610fad6001600160401b0385168261308c565b926040519788610fe2916060809160018060a01b03815116845260208101516020850152604081015160408501520151910152565b608088015260a087015260c086015260e08501526001600160401b03908116610100850152166101208301526001600160a01b039081169216907fc5ce6f91501ecc75dd243f744d83c7cffcbc799592c0c570eb94e14723de14c49061014090a3600160035580f35b60405162461bcd60e51b815260206004820152601b60248201527f496e76616c696420616d6f756e74496e506572496e74657276616c00000000006044820152606490fd5b610d528187610d3d565b60405162461bcd60e51b815260206004820152600c60248201526b08ccaca40e8dede40d0d2ced60a31b6044820152606490fd5b60405162461bcd60e51b815260206004820152601a60248201527f696e73756666696369656e7420657865637574696f6e206665650000000000006044820152606490fd5b61111f90969196612016565b9438610ce9565b6040513d89823e3d90fd5b8580fd5b34926040516323b872dd60e01b602082015233602482015230604482015260443560648201526064815260a081018181106001600160401b038211176111905760405261118b906001600160a01b0387166136da565b610ceb565b634e487b7160e01b88526041600452602488fd5b90506001600160401b038316111538610c90565b9050838816111538610c69565b60405162461bcd60e51b815260206004820152601c60248201527f45786365656473206d6178206e756d626572206f66206f7264657273000000006044820152606490fd5b90506007541038610c22565b60405162461bcd60e51b815260206004820152601060248201526f24b73b30b634b21030b6b7bab73a24b760811b6044820152606490fd5b506001600160a01b038416158015610c0357506001600160a01b0382166006602160991b0114610c03565b506001600160a01b03821615610bfc565b8480fd5b8380fd5b50346104695780600319360112610469576002546040516001600160a01b039091168152602090f35b50346104695780600319360112610469576112d46130f4565b6112dc613224565b600160ff1960045416176004557f62e78cea01bee320cd4e420270b5ea74000d11b0c9f74754ebdbfc544b05a2586020604051338152a180f35b50346104695780600319360112610469576020604051600a8152f35b5034610469578060031936011261046957610160600754600854600954600a54600b54906001600160401b03918291600c549483600d54169660405198895260208901526040880152606087015260018060a01b038116608087015260a01c1660a085015280821660c0850152808260401c1660e08501528160801c1661010084015260c01c610120830152610140820152f35b503461046957604036600319011261046957610b246113e3611fbb565b6113eb61314c565b6113f3613201565b6024359061329a565b5034610469576020366003190112610469576004356114196130f4565b670de0b6b3a7640000811161145a576020817ff618b4aadd2833a431f58076b3a6f8482793d795c5378b782c1f2c212cf2294192600955604051908152a180f35b60405162461bcd60e51b815260206004820152601760248201527f45786365656473206d61782065786563757465206665650000000000000000006044820152606490fd5b50346104695760203660031901126104695760043565ffffffffffff8082169081830361128e576114ce6130f4565b6114d7426138e2565b91816114e16130bb565b16808211156115e0575091611527917ff1038c18cf84a56e432fdbfaf746924b7ea511dfe03a6506a0ceba4888788d9b9493620697809081808210911802181690613280565b906002548060d01c80611584575b5050600280546001600160a01b031660a083901b65ffffffffffff60a01b161760d084901b6001600160d01b0319161790556040805165ffffffffffff9283168152919092166020820152a180f35b4211156115b657600180546001600160d01b031660309290921b6001600160d01b0319169190911790555b3880611535565b507f2b1fa2edafe6f7b9e97c1a9e0c3660e645beb2dcaa2d45bdbf9beaf5472e1ec58480a16115af565b03908111611615577ff1038c18cf84a56e432fdbfaf746924b7ea511dfe03a6506a0ceba4888788d9b92916115279190613280565b634e487b7160e01b84526011600452602484fd5b503461046957602036600319011261046957611643611fbb565b61164b6130f4565b7f3377dc44241e779dd06afab5b788a35ca5f3b778836e2990bdb26a2a4b2e5ed6602061168861167a426138e2565b6116826130bb565b90613280565b600180546001600160d01b031981166001600160a01b039690961695861760a084811b65ffffffffffff60a01b169190911790925565ffffffffffff911c81166116d8575b60405191168152a280f35b7f8886ebfc4259abdbc16601dd8fb5678e54878f47b3c34836cfc51154a96051098680a16116cd565b5034610469576020366003190112610469577f4e608a78714c1fe382419f901cf4484deb85d50f25e274ae3f9f99a5e2a0752f602061173e612000565b6117466130f4565b6117656001600160401b03809216918215908115611781575b50612fb0565b806001600160401b0319600c541617600c55604051908152a180f35b9050600b5460a01c168210153861175f565b5034610469578060031936011261046957602060ff600454166040519015158152f35b5034610469576020366003190112610469577f77d555c35b3b336f7f59cd21f124d9ceea7be58ce2ff75307699162119390bbe60206004356117f66130f4565b80600855604051908152a180f35b50346104695760203660031901126104695761181e611fbb565b6118266130f4565b6001600160a01b03811690611845906118408315156120ed565b613742565b15611871577f1584773458d98c71b34a270ee1100b3a42889bf91e3b7a858563b684c24d838e8280a280f35b60405162461bcd60e51b81526020600482015260156024820152744b656570657220616c72656164792065786973747360581b6044820152606490fd5b50346104695780600319360112610469576118c76130f4565b6118cf61351a565b60ff19600454166004557f5db9ee0a495bf2e6ff9c91a7834c1ba4fdd244a5e8aa4e537bd38aeae4b073aa6020604051338152a180f35b5034610469576020366003190112610469576020906040906001600160a01b0361192e611fbb565b168152600683522054604051908152f35b50346104695760403660031901126104695760043561195c611fd6565b811580611a1d575b611994575b336001600160a01b038216036119825761070e916131bc565b60405163334bd91960e11b8152600490fd5b60015465ffffffffffff60a082901c16906001600160a01b031615801590611a0d575b80156119fb575b6119da57506001805465ffffffffffff60a01b19169055611969565b6040516319ca5ebb60e01b815265ffffffffffff9091166004820152602490fd5b504265ffffffffffff821610156119be565b5065ffffffffffff8116156119b7565b506002546001600160a01b03828116911614611964565b503461046957806003193601126104695760206040516000805160206139158339815191528152f35b503461046957602036600319011261046957600435611a7a6130f4565b612710811015611ab6576020817f48a77fe0e929fbe6a577761578b9a8a758a97c27e37194666eeef3b609483c7d92600a55604051908152a180f35b60405162461bcd60e51b815260206004820152601a60248201527f496e76616c6964206665652072617465206d6f6c6563756c61720000000000006044820152606490fd5b503461046957604036600319011261046957600435611b18611fd6565b8115610712578161070e92845283602052611b396001604086200154613196565b613869565b5034610469576040366003190112610469576101e0906040611b5e611fbb565b6001600160a01b0390811683526005602090815282842060243585529052912090611b88826120b2565b91816004820154169160058201541690600681015460078201546008830154600984015491600a85015493600c600b870154960154966001600160401b0398611bfa604051809c6060809160018060a01b03815116845260208101516020850152604081015160408501520151910152565b60808b015260a08a015260c089015260e0880152610100870152610120860152610140850152610160840152818116610180840152818160401c166101a084015260801c166101c0820152f35b50346104695760e036600319011261046957611c61611fbb565b604435906001600160401b0380831161128e573660238401121561128e57826004013590811161128e573660248260051b8501011161128e5760c435916001600160a01b038316830361128a57610b2493611cba613201565b611cc2613224565b611cca61314c565b60a43592608435926024606435930190602435906124cc565b503461046957602036600319011261046957600160406020926004358152808452200154604051908152f35b503461046957806003193601126104695760045460405160089190911c6001600160a01b03168152602090f35b5034610469576020366003190112610469577f20f30c5e6cc4eab9346d1f1ba33e6ef221ac1892a836cf4c6b067721c58158ee6020611d79612000565b611d816130f4565b6001600160401b0367ffffffffffffffff60401b81831692611da484151561212b565b600c54928360801c1680611dd5575b5060401b169067ffffffffffffffff60401b191617600c55604051908152a180f35b611de19085111561216e565b38611db3565b503461046957602036600319011261046957611e01611fbb565b611e096130f4565b6001600160a01b03811690611e2890611e238315156120ed565b613539565b15611e54577fa7a775c2c8141f7985c111748ec31c11e5e44b83528e105c8d1d4e8e6b81cf808280a280f35b60405162461bcd60e51b815260206004820152601560248201527412d9595c195c88191bd95cc81b9bdd08195e1a5cdd605a1b6044820152606490fd5b5034610469578060031936011261046957611eaa6130f4565b6002548060d01c80611eca575b600280546001600160a01b031690558280f35b421115611efc57600180546001600160d01b031660309290921b6001600160d01b0319169190911790555b3880611eb7565b507f2b1fa2edafe6f7b9e97c1a9e0c3660e645beb2dcaa2d45bdbf9beaf5472e1ec58180a1611ef5565b50346104695780600319360112610469576020604051620697808152f35b905034611fb7576020366003190112611fb75760043563ffffffff60e01b8116809103611fb357602092506318a4c3c360e11b8114908115611f88575b5015158152f35b637965db0b60e01b811491508115611fa2575b5038611f81565b6301ffc9a760e01b14905038611f9b565b8280fd5b5080fd5b600435906001600160a01b0382168203611fd157565b600080fd5b602435906001600160a01b0382168203611fd157565b35906001600160a01b0382168203611fd157565b600435906001600160401b0382168203611fd157565b6001600160401b03811161202957604052565b634e487b7160e01b600052604160045260246000fd5b608081019081106001600160401b0382111761202957604052565b61018081019081106001600160401b0382111761202957604052565b602081019081106001600160401b0382111761202957604052565b90601f801991011681019081106001600160401b0382111761202957604052565b906040516120bf8161203f565b82546001600160a01b0316815260018301546020820152600283015460408201526003909201546060830152565b156120f457565b60405162461bcd60e51b815260206004820152600f60248201526e496e76616c6964206164647265737360881b6044820152606490fd5b1561213257565b60405162461bcd60e51b815260206004820152601460248201527322bc31b2b2b2399036b4b710323ab930ba34b7b760611b6044820152606490fd5b1561217557565b60405162461bcd60e51b815260206004820152601460248201527322bc31b2b2b2399036b0bc10323ab930ba34b7b760611b6044820152606490fd5b156121b857565b60405162461bcd60e51b815260206004820152601760248201527f4f7264657220616c726561647920636f6d706c657465640000000000000000006044820152606490fd5b1561220457565b60405162461bcd60e51b815260206004820152600e60248201526d125b9d985b1a5908185b5bdd5b9d60921b6044820152606490fd5b9190820180921161224757565b634e487b7160e01b600052601160045260246000fd5b6001600160401b03908116600019019190821161224757565b3d156122b0573d906001600160401b03821161202957604051916122a4601f8201601f191660200184612091565b82523d6000602084013e565b606090565b80546001600160a01b03168252600181015460208301526002810154604083015260030154606090910152565b9190820391821161224757565b600c60009182815582600182015582600282015582600382015582600482015582600582015582600682015582600782015582600882015582600982015582600a82015582600b8201550155565b919091604081840312611fd157805192602090818301516001600160401b0393848211611fd1570181601f82011215611fd1578051938411612029578360051b906040519461238e85840187612091565b85528380860192820101928311611fd1578301905b8282106123b1575050505090565b815181529083019083016123a3565b8183526020600583901b84018101939192906000818401855b8483106123ea575050505050505090565b90919293949596601f199081888203018452883560be1984360301811215611fd157830160c092813561ffff8116809103611fd157835261242c888301611fec565b6001600160a01b03908116848a0152604090612449848301611fec565b1690840152606080830135908401526080808301359084015260a09182810135601e1982360301811215611fd15701928884359401916001600160401b038511611fd1578436038313611fd157601f858b968860019989988701528501528060e095868601376000858286010152011601019901930193019195949392906123d9565b94969291969593909560009760018060a01b0387168952600560205260408920888a52602052604089209560078701548015612f7957600c880154906125286001600160401b0383166001600160401b038460801c16106121b1565b85151580612f6f575b61253a906121fd565b6001600160401b03600d541680151580612f59575b612b015750505061256a6009880154600c5460c01c906122e2565b4210612abc578991600c8801546001600160401b038061258b81841661225d565b169160801c1614600014612aa2576125a8600789015486146121fd565b600b880154955b60048901546001600160a01b031680612a9d57506006602160991b015b60045460405163095ea7b360e01b602082015260089190911c6001600160a01b031660248201819052604482018990529161261482606481015b03601f198101845283612091565b81516020908890848301826001600160a01b0386165af187513d82612a78575b505015612a23575b50505060058901546001600160a01b031680612944575090836126be939260018060a01b0360045460081c169360018060a01b0360048d015416801560001461293e57506006602160991b01905b8c5460405163c31219cf60e01b815260c06004820152998a98899788966001600160a01b03909416949360c48801916123c0565b6001600160a01b0390941660248601526044850152606484015260848301524260a483015203925af1908115612933576001600160401b0360019392612789928b91612910575b505b600c88015490612765838360801c16957f72027e9e801dd001d1cbdbcc097f0353d9235d0c77a57f97decf382306e496d960e08c61274860405180926122b5565b8960808201528360a08201528560c0820152a160078b01546122e2565b60078a015561277960088a0191825461223a565b905560401c16600987015461223a565b6009860155600b850161279d8482546122e2565b9055016001600160401b0381116128fc57600c8401805467ffffffffffffffff60801b191660809290921b67ffffffffffffffff60801b169190911790558591829182919060206040516127f081612076565b84815201916001600160a01b03165af1612808612276565b50156128b757600c8101546001600160401b038082169160801c161461282f575b50505050565b60807f8c4a403ab533c1f14741c0419a701e083d56f326e5c8c628fa1637fbca317bd29161286060405180926122b5565ba160018060a01b03168252600560205260408220908252602052612886604082206122ef565b6007546000198101919082116128a3575060075538808080612829565b634e487b7160e01b81526011600452602490fd5b60405162461bcd60e51b815260206004820152601a60248201527f45786563757465466565207472616e73666572206661696c65640000000000006044820152606490fd5b634e487b7160e01b87526011600452602487fd5b61292c91503d808d833e6129248183612091565b81019061233d565b5038612705565b6040513d8a823e3d90fd5b9061268a565b60048054908b015491966129b09560089290921c6001600160a01b0390811695948894909392911680612a1d57506006602160991b01915b8d54604051630751fbb760e21b815260e060048201529a8b998a9889976001600160a01b03909416959360e48901916123c0565b6001600160a01b03909516602487015260448601526064850152608484015260a48301524260c483015203925af1908115612933576001600160401b0360019392612789928b91612a02575b50612707565b612a1691503d808d833e6129248183612091565b50386129fc565b9161297c565b612a62612a70936040519063095ea7b360e01b6020830152602482015288604482015260448152612a538161203f565b6001600160a01b0383166136da565b6001600160a01b03166136da565b38808061263c565b909150612a9557506001600160a01b0381163b15155b3880612634565b600114612a8e565b6125cc565b612ab1600689015486146121fd565b600a880154956125af565b60405162461bcd60e51b815260206004820152601a60248201527f457865637574696f6e2074696d65206e6f7420726561636865640000000000006044820152606490fd5b9b9a96509650979a93505050506001600160401b038560801c16956009850154928182905b6001600160401b0389166001600160401b038b161015612f4a5742612b4b8c8861223a565b1015612bdb576001600160401b03612b64818b1661225d565b166001600160401b038b1614600014612ba757505084996001600160401b036001612b9b600b8a0154975b838c60401c169061223a565b9a01169894909a612b26565b6001612b9b612bd5612bc9949e946001600160401b039460068d01549061223a565b9e600a8c01549061223a565b97612b8f565b929950939299965096935b8111612f0c57600b8501548311612ec75780612dc0575b82612d4c575b7f0889b88288b4d90a3cab4fb81e866caa8777a1809a08b82a9a01bc5e819a4549610100612c308661225d565b6001600160401b0360405191612c46838b6122b5565b1660808201528360a08201528560c08201528a60e0820152a1600c8501546001600160401b0390811690851610612ce8575050505060807f8c4a403ab533c1f14741c0419a701e083d56f326e5c8c628fa1637fbca317bd291612cac60405180926122b5565ba160018060a01b03168252600560205260408220908252602052612cd2604082206122ef565b6007546000198101919082116128a35750600755565b612d4a9750612d19939650600c9550612d059060078601546122e2565b60078501556009840155600b8301546122e2565b600b82015501805467ffffffffffffffff60801b191660809290921b67ffffffffffffffff60801b16919091179055565b565b87808060018060a01b03885416866020604051612d6881612076565b84815201915af1612d77612276565b50612c0357606460405162461bcd60e51b815260206004820152602060248201527f526566756e6445786563757465466565207472616e73666572206661696c65646044820152fd5b60048501546001600160a01b03168181612eab5750506006602160991b013b15612ea757604051632e1a7d4d60e01b8152600481018290528881602481836006602160991b015af18015612e9c57612e89575b5087808060018060a01b03885416846020604051612e3081612076565b84815201915af1612e3f612276565b50612bfd5760405162461bcd60e51b815260206004820152601e60248201527f526566756e64416d6f756e74496e207472616e73666572206661696c656400006044820152606490fd5b612e9590989198612016565b9638612e13565b6040513d8b823e3d90fd5b8780fd5b8654612ec2926001600160a01b0390911690613242565b612bfd565b60405162461bcd60e51b815260206004820152601b60248201527f496e76616c69642072656d61696e696e674578656375746546656500000000006044820152606490fd5b60405162461bcd60e51b815260206004820152601660248201527524b73b30b634b2103932b33ab73220b6b7bab73a24b760511b6044820152606490fd5b92995093929996509693612be6565b50612f688160098c015461223a565b421161254f565b5080861115612531565b60405162461bcd60e51b815260206004820152600f60248201526e13dc99195c881b9bdd08199bdd5b99608a1b6044820152606490fd5b15612fb757565b60405162461bcd60e51b815260206004820152601560248201527445786365656473206d696e20696e74657276616c7360581b6044820152606490fd5b15612ffb57565b60405162461bcd60e51b815260206004820152601260248201527124b73b30b634b2103a37b5b2b7103830b4b960711b6044820152606490fd5b1561303c57565b60405162461bcd60e51b815260206004820152601560248201527445786365656473206d617820696e74657276616c7360581b6044820152606490fd5b8181029291811591840414171561224757565b8115613096570490565b634e487b7160e01b600052601260045260246000fd5b60001981146122475760010190565b6002548060d01c80151590816130ea575b50156130e05760a01c65ffffffffffff1690565b5060015460d01c90565b90504211386130cc565b3360009081527fad3228b676f7d3cd4284a5443f17f1962b36e491b30a40b2405849e597ba5fb5602052604081205460ff161561312e5750565b6044906040519063e2517d3f60e01b82523360048301526024820152fd5b3360009081527f6f1c9115a95168d08312816f00b5797a008846d2e6f89f1846d765a68e57d09060205260409020546000805160206139158339815191529060ff161561312e5750565b80600052600060205260406000203360005260205260ff604060002054161561312e5750565b906131d2918015806131ea575b6131d557613665565b90565b600280546001600160a01b0319169055613665565b506002546001600160a01b038381169116146131c9565b600260035414613212576002600355565b604051633ee5aeb560e01b8152600490fd5b60ff6004541661323057565b60405163d93c066560e01b8152600490fd5b60405163a9059cbb60e01b60208201526001600160a01b0390921660248301526044820192909252612d4a9161327b8260648101612606565b6136da565b91909165ffffffffffff8080941691160191821161224757565b919060009060018060a01b03809416908183526020600581526040928385208386528252838520966007880190815480156134c4576132ed600c8b01546001600160401b038082169160801c16106121b1565b60048a0154821690816134b157505081546006602160991b0190813b156134ad578891602483928a519485938492632e1a7d4d60e01b845260048401525af180156134a357613490575b50868080838c54168554888b5161334d81612076565b84815201915af161335c612276565b5015613442575b88541690868080600b8c01948554888b5161337d81612076565b84815201915af161338c612276565b50156133f257612cd29697987fd3314951a9cd34e6bbebe2c2cd56097b7df62fa40b9dc10803490b1a085eec589260e092549054906133cd895180946122b5565b608083015260a08201528860c0820152a18552600581528285209185525282206122ef565b855162461bcd60e51b815260048101859052602360248201527f52656d61696e696e6745786563757465466565207472616e73666572206661696044820152621b195960ea1b6064820152608490fd5b855162461bcd60e51b815260048101859052602160248201527f52656d61696e696e67416d6f756e74496e207472616e73666572206661696c656044820152601960fa1b6064820152608490fd5b61349c90979197612016565b9538613337565b87513d8a823e3d90fd5b8880fd5b6134bf91838c541690613242565b613363565b865162461bcd60e51b815260048101869052602960248201527f4f7264657220646f6573206e6f74206578697374206f7220616c72656164792060448201526818d85b98d95b1b195960ba1b6064820152608490fd5b60ff600454161561352757565b604051638dfc202b60e01b8152600490fd5b6001600160a01b031660008181527f6f1c9115a95168d08312816f00b5797a008846d2e6f89f1846d765a68e57d09060205260408120549091906000805160206139158339815191529060ff16156135d25780835282602052604083208284526020526040832060ff1981541690557ff6391f5c32d9c69d2a47ea670b442974b53935d1edc7fd64eb21e047a839171b339380a4600190565b505090565b6001600160a01b031660008181527fad3228b676f7d3cd4284a5443f17f1962b36e491b30a40b2405849e597ba5fb5602052604081205490919060ff16156136615781805281602052604082208183526020526040822060ff19815416905533917ff6391f5c32d9c69d2a47ea670b442974b53935d1edc7fd64eb21e047a839171b8180a4600190565b5090565b9060009180835282602052604083209160018060a01b03169182845260205260ff6040842054166000146135d25780835282602052604083208284526020526040832060ff1981541690557ff6391f5c32d9c69d2a47ea670b442974b53935d1edc7fd64eb21e047a839171b339380a4600190565b906000602091828151910182855af115613736576000513d61372d57506001600160a01b0381163b155b61370b5750565b604051635274afe760e01b81526001600160a01b039091166004820152602490fd5b60011415613704565b6040513d6000823e3d90fd5b6001600160a01b031660008181527f6f1c9115a95168d08312816f00b5797a008846d2e6f89f1846d765a68e57d09060205260408120549091906000805160206139158339815191529060ff166135d257808352826020526040832082845260205260408320600160ff198254161790557f2f8788117e7eff1d82e926ec794901d17c78024a50270940304540a733656f0d339380a4600190565b6001600160a01b031660008181527fad3228b676f7d3cd4284a5443f17f1962b36e491b30a40b2405849e597ba5fb5602052604081205490919060ff1661366157818052816020526040822081835260205260408220600160ff1982541617905533917f2f8788117e7eff1d82e926ec794901d17c78024a50270940304540a733656f0d8180a4600190565b9060009180835282602052604083209160018060a01b03169182845260205260ff604084205416156000146135d257808352826020526040832082845260205260408320600160ff198254161790557f2f8788117e7eff1d82e926ec794901d17c78024a50270940304540a733656f0d339380a4600190565b65ffffffffffff908181116138f5571690565b604490604051906306dfcc6560e41b8252603060048301526024820152fdfe7828e9d3df82e69351d51b8c7a93dbe8a71fecfc70c9ab6c998b4a0105e7f8a7a264697066735822122013a64dd31906665e38d974f002c9df4a027f5020c7ea204cc2b6427357cab68164736f6c63430008160033",
  "linkReferences": {},
  "deployedLinkReferences": {}
}