{
  "_format": "hh-sol-artifact-1",
  "contractName": "LimitOrderBook",
  "sourceName": "contracts/order/LimitOrderBook.sol",
  "abi": [
    {
      "inputs": [
        {
          "internalType": "address",
          "name": "_aggregator",
          "type": "address"
        },
        {
          "internalType": "address",
          "name": "_feeTo",
          "type": "address"
        }
      ],
      "stateMutability": "nonpayable",
      "type": "constructor"
    },
    {
      "inputs": [],
      "name": "AccessControlBadConfirmation",
      "type": "error"
    },
    {
      "inputs": [
        {
          "internalType": "uint48",
          "name": "schedule",
          "type": "uint48"
        }
      ],
      "name": "AccessControlEnforcedDefaultAdminDelay",
      "type": "error"
    },
    {
      "inputs": [],
      "name": "AccessControlEnforcedDefaultAdminRules",
      "type": "error"
    },
    {
      "inputs": [
        {
          "internalType": "address",
          "name": "defaultAdmin",
          "type": "address"
        }
      ],
      "name": "AccessControlInvalidDefaultAdmin",
      "type": "error"
    },
    {
      "inputs": [
        {
          "internalType": "address",
          "name": "account",
          "type": "address"
        },
        {
          "internalType": "bytes32",
          "name": "neededRole",
          "type": "bytes32"
        }
      ],
      "name": "AccessControlUnauthorizedAccount",
      "type": "error"
    },
    {
      "inputs": [],
      "name": "EnforcedPause",
      "type": "error"
    },
    {
      "inputs": [
        {
          "components": [
            {
              "internalType": "address",
              "name": "account",
              "type": "address"
            },
            {
              "internalType": "uint256",
              "name": "index",
              "type": "uint256"
            },
            {
              "internalType": "uint256",
              "name": "orderType",
              "type": "uint256"
            },
            {
              "internalType": "uint256",
              "name": "executeFee",
              "type": "uint256"
            }
          ],
          "internalType": "struct IOrder.Order",
          "name": "order",
          "type": "tuple"
        }
      ],
      "name": "ErrorExpired",
      "type": "error"
    },
    {
      "inputs": [],
      "name": "ExpectedPause",
      "type": "error"
    },
    {
      "inputs": [],
      "name": "ReentrancyGuardReentrantCall",
      "type": "error"
    },
    {
      "inputs": [
        {
          "internalType": "uint8",
          "name": "bits",
          "type": "uint8"
        },
        {
          "internalType": "uint256",
          "name": "value",
          "type": "uint256"
        }
      ],
      "name": "SafeCastOverflowedUintDowncast",
      "type": "error"
    },
    {
      "inputs": [
        {
          "internalType": "address",
          "name": "token",
          "type": "address"
        }
      ],
      "name": "SafeERC20FailedOperation",
      "type": "error"
    },
    {
      "anonymous": false,
      "inputs": [
        {
          "indexed": true,
          "internalType": "address",
          "name": "newAggregator",
          "type": "address"
        }
      ],
      "name": "AggregatorUpdated",
      "type": "event"
    },
    {
      "anonymous": false,
      "inputs": [],
      "name": "DefaultAdminDelayChangeCanceled",
      "type": "event"
    },
    {
      "anonymous": false,
      "inputs": [
        {
          "indexed": false,
          "internalType": "uint48",
          "name": "newDelay",
          "type": "uint48"
        },
        {
          "indexed": false,
          "internalType": "uint48",
          "name": "effectSchedule",
          "type": "uint48"
        }
      ],
      "name": "DefaultAdminDelayChangeScheduled",
      "type": "event"
    },
    {
      "anonymous": false,
      "inputs": [],
      "name": "DefaultAdminTransferCanceled",
      "type": "event"
    },
    {
      "anonymous": false,
      "inputs": [
        {
          "indexed": true,
          "internalType": "address",
          "name": "newAdmin",
          "type": "address"
        },
        {
          "indexed": false,
          "internalType": "uint48",
          "name": "acceptSchedule",
          "type": "uint48"
        }
      ],
      "name": "DefaultAdminTransferScheduled",
      "type": "event"
    },
    {
      "anonymous": false,
      "inputs": [
        {
          "indexed": false,
          "internalType": "uint256",
          "name": "newMinExecuteFee",
          "type": "uint256"
        }
      ],
      "name": "ExecuteFeeUpdated",
      "type": "event"
    },
    {
      "anonymous": false,
      "inputs": [
        {
          "indexed": true,
          "internalType": "address",
          "name": "newFeeTo",
          "type": "address"
        }
      ],
      "name": "FeeToUpdated",
      "type": "event"
    },
    {
      "anonymous": false,
      "inputs": [
        {
          "indexed": true,
          "internalType": "address",
          "name": "keeper",
          "type": "address"
        }
      ],
      "name": "KeeperAdded",
      "type": "event"
    },
    {
      "anonymous": false,
      "inputs": [
        {
          "indexed": true,
          "internalType": "address",
          "name": "keeper",
          "type": "address"
        }
      ],
      "name": "KeeperRemoved",
      "type": "event"
    },
    {
      "anonymous": false,
      "inputs": [
        {
          "components": [
            {
              "internalType": "address",
              "name": "account",
              "type": "address"
            },
            {
              "internalType": "uint256",
              "name": "index",
              "type": "uint256"
            },
            {
              "internalType": "uint256",
              "name": "orderType",
              "type": "uint256"
            },
            {
              "internalType": "uint256",
              "name": "executeFee",
              "type": "uint256"
            }
          ],
          "indexed": false,
          "internalType": "struct IOrder.Order",
          "name": "order",
          "type": "tuple"
        },
        {
          "indexed": false,
          "internalType": "uint256",
          "name": "repay",
          "type": "uint256"
        },
        {
          "indexed": false,
          "internalType": "uint256",
          "name": "amountOut",
          "type": "uint256"
        },
        {
          "indexed": false,
          "internalType": "uint256",
          "name": "repayFee",
          "type": "uint256"
        }
      ],
      "name": "LimitOrderCancelled",
      "type": "event"
    },
    {
      "anonymous": false,
      "inputs": [
        {
          "components": [
            {
              "internalType": "address",
              "name": "account",
              "type": "address"
            },
            {
              "internalType": "uint256",
              "name": "index",
              "type": "uint256"
            },
            {
              "internalType": "uint256",
              "name": "orderType",
              "type": "uint256"
            },
            {
              "internalType": "uint256",
              "name": "executeFee",
              "type": "uint256"
            }
          ],
          "indexed": false,
          "internalType": "struct IOrder.Order",
          "name": "order",
          "type": "tuple"
        },
        {
          "indexed": true,
          "internalType": "address",
          "name": "tokenIn",
          "type": "address"
        },
        {
          "indexed": true,
          "internalType": "address",
          "name": "tokenOut",
          "type": "address"
        },
        {
          "indexed": false,
          "internalType": "uint256",
          "name": "amountIn",
          "type": "uint256"
        },
        {
          "indexed": false,
          "internalType": "uint256",
          "name": "amountOut",
          "type": "uint256"
        },
        {
          "indexed": false,
          "internalType": "uint256",
          "name": "orderFee",
          "type": "uint256"
        },
        {
          "indexed": false,
          "internalType": "uint256",
          "name": "deadline",
          "type": "uint256"
        }
      ],
      "name": "LimitOrderCreated",
      "type": "event"
    },
    {
      "anonymous": false,
      "inputs": [
        {
          "components": [
            {
              "internalType": "address",
              "name": "account",
              "type": "address"
            },
            {
              "internalType": "uint256",
              "name": "index",
              "type": "uint256"
            },
            {
              "internalType": "uint256",
              "name": "orderType",
              "type": "uint256"
            },
            {
              "internalType": "uint256",
              "name": "executeFee",
              "type": "uint256"
            }
          ],
          "indexed": false,
          "internalType": "struct IOrder.Order",
          "name": "order",
          "type": "tuple"
        }
      ],
      "name": "LimitOrderExecuted",
      "type": "event"
    },
    {
      "anonymous": false,
      "inputs": [
        {
          "components": [
            {
              "internalType": "address",
              "name": "account",
              "type": "address"
            },
            {
              "internalType": "uint256",
              "name": "index",
              "type": "uint256"
            },
            {
              "internalType": "uint256",
              "name": "orderType",
              "type": "uint256"
            },
            {
              "internalType": "uint256",
              "name": "executeFee",
              "type": "uint256"
            }
          ],
          "indexed": false,
          "internalType": "struct IOrder.Order",
          "name": "order",
          "type": "tuple"
        },
        {
          "indexed": false,
          "internalType": "uint256",
          "name": "pay",
          "type": "uint256"
        },
        {
          "indexed": false,
          "internalType": "uint256",
          "name": "fillAmount",
          "type": "uint256"
        }
      ],
      "name": "LimitOrderStateUpdated",
      "type": "event"
    },
    {
      "anonymous": false,
      "inputs": [
        {
          "components": [
            {
              "internalType": "address",
              "name": "account",
              "type": "address"
            },
            {
              "internalType": "uint256",
              "name": "index",
              "type": "uint256"
            },
            {
              "internalType": "uint256",
              "name": "orderType",
              "type": "uint256"
            },
            {
              "internalType": "uint256",
              "name": "executeFee",
              "type": "uint256"
            }
          ],
          "indexed": false,
          "internalType": "struct IOrder.Order",
          "name": "order",
          "type": "tuple"
        },
        {
          "indexed": false,
          "internalType": "uint256",
          "name": "amountOut",
          "type": "uint256"
        }
      ],
      "name": "LimitOrderUserUpdated",
      "type": "event"
    },
    {
      "anonymous": false,
      "inputs": [
        {
          "indexed": false,
          "internalType": "uint256",
          "name": "maximum",
          "type": "uint256"
        }
      ],
      "name": "MaximumNumberOfOrdersUpdated",
      "type": "event"
    },
    {
      "anonymous": false,
      "inputs": [
        {
          "indexed": false,
          "internalType": "uint256",
          "name": "newOrderFeeRate",
          "type": "uint256"
        }
      ],
      "name": "OrderFeeRateUpdated",
      "type": "event"
    },
    {
      "anonymous": false,
      "inputs": [
        {
          "indexed": false,
          "internalType": "address",
          "name": "account",
          "type": "address"
        }
      ],
      "name": "Paused",
      "type": "event"
    },
    {
      "anonymous": false,
      "inputs": [
        {
          "indexed": true,
          "internalType": "address",
          "name": "sender",
          "type": "address"
        },
        {
          "indexed": false,
          "internalType": "uint256",
          "name": "amount",
          "type": "uint256"
        }
      ],
      "name": "Received",
      "type": "event"
    },
    {
      "anonymous": false,
      "inputs": [
        {
          "indexed": true,
          "internalType": "bytes32",
          "name": "role",
          "type": "bytes32"
        },
        {
          "indexed": true,
          "internalType": "bytes32",
          "name": "previousAdminRole",
          "type": "bytes32"
        },
        {
          "indexed": true,
          "internalType": "bytes32",
          "name": "newAdminRole",
          "type": "bytes32"
        }
      ],
      "name": "RoleAdminChanged",
      "type": "event"
    },
    {
      "anonymous": false,
      "inputs": [
        {
          "indexed": true,
          "internalType": "bytes32",
          "name": "role",
          "type": "bytes32"
        },
        {
          "indexed": true,
          "internalType": "address",
          "name": "account",
          "type": "address"
        },
        {
          "indexed": true,
          "internalType": "address",
          "name": "sender",
          "type": "address"
        }
      ],
      "name": "RoleGranted",
      "type": "event"
    },
    {
      "anonymous": false,
      "inputs": [
        {
          "indexed": true,
          "internalType": "bytes32",
          "name": "role",
          "type": "bytes32"
        },
        {
          "indexed": true,
          "internalType": "address",
          "name": "account",
          "type": "address"
        },
        {
          "indexed": true,
          "internalType": "address",
          "name": "sender",
          "type": "address"
        }
      ],
      "name": "RoleRevoked",
      "type": "event"
    },
    {
      "anonymous": false,
      "inputs": [
        {
          "indexed": false,
          "internalType": "address",
          "name": "account",
          "type": "address"
        }
      ],
      "name": "Unpaused",
      "type": "event"
    },
    {
      "inputs": [],
      "name": "DEFAULT_ADMIN_ROLE",
      "outputs": [
        {
          "internalType": "bytes32",
          "name": "",
          "type": "bytes32"
        }
      ],
      "stateMutability": "view",
      "type": "function"
    },
    {
      "inputs": [],
      "name": "KEEPER_ROLE",
      "outputs": [
        {
          "internalType": "bytes32",
          "name": "",
          "type": "bytes32"
        }
      ],
      "stateMutability": "view",
      "type": "function"
    },
    {
      "inputs": [],
      "name": "MAX_EXECUTE_FEE",
      "outputs": [
        {
          "internalType": "uint256",
          "name": "",
          "type": "uint256"
        }
      ],
      "stateMutability": "view",
      "type": "function"
    },
    {
      "inputs": [],
      "name": "WETH",
      "outputs": [
        {
          "internalType": "contract IWETH",
          "name": "",
          "type": "address"
        }
      ],
      "stateMutability": "view",
      "type": "function"
    },
    {
      "inputs": [],
      "name": "acceptDefaultAdminTransfer",
      "outputs": [],
      "stateMutability": "nonpayable",
      "type": "function"
    },
    {
      "inputs": [
        {
          "internalType": "address",
          "name": "keeper",
          "type": "address"
        }
      ],
      "name": "addKeeper",
      "outputs": [],
      "stateMutability": "nonpayable",
      "type": "function"
    },
    {
      "inputs": [
        {
          "internalType": "address",
          "name": "tokenIn",
          "type": "address"
        },
        {
          "internalType": "address",
          "name": "tokenOut",
          "type": "address"
        },
        {
          "internalType": "uint256",
          "name": "_amountIn",
          "type": "uint256"
        },
        {
          "internalType": "uint256",
          "name": "amountOut",
          "type": "uint256"
        },
        {
          "internalType": "uint256",
          "name": "deadline",
          "type": "uint256"
        }
      ],
      "name": "addLimitOrder",
      "outputs": [],
      "stateMutability": "payable",
      "type": "function"
    },
    {
      "inputs": [],
      "name": "aggregator",
      "outputs": [
        {
          "internalType": "contract IAggregator",
          "name": "",
          "type": "address"
        }
      ],
      "stateMutability": "view",
      "type": "function"
    },
    {
      "inputs": [
        {
          "internalType": "address",
          "name": "newAdmin",
          "type": "address"
        }
      ],
      "name": "beginDefaultAdminTransfer",
      "outputs": [],
      "stateMutability": "nonpayable",
      "type": "function"
    },
    {
      "inputs": [],
      "name": "cancelDefaultAdminTransfer",
      "outputs": [],
      "stateMutability": "nonpayable",
      "type": "function"
    },
    {
      "inputs": [
        {
          "internalType": "uint256",
          "name": "index",
          "type": "uint256"
        }
      ],
      "name": "cancelLimitOrder",
      "outputs": [],
      "stateMutability": "nonpayable",
      "type": "function"
    },
    {
      "inputs": [
        {
          "internalType": "address",
          "name": "account",
          "type": "address"
        },
        {
          "internalType": "uint256",
          "name": "index",
          "type": "uint256"
        }
      ],
      "name": "cancelUserLimitOrder",
      "outputs": [],
      "stateMutability": "nonpayable",
      "type": "function"
    },
    {
      "inputs": [
        {
          "internalType": "uint48",
          "name": "newDelay",
          "type": "uint48"
        }
      ],
      "name": "changeDefaultAdminDelay",
      "outputs": [],
      "stateMutability": "nonpayable",
      "type": "function"
    },
    {
      "inputs": [],
      "name": "currentNumberOfOrders",
      "outputs": [
        {
          "internalType": "uint256",
          "name": "",
          "type": "uint256"
        }
      ],
      "stateMutability": "view",
      "type": "function"
    },
    {
      "inputs": [],
      "name": "defaultAdmin",
      "outputs": [
        {
          "internalType": "address",
          "name": "",
          "type": "address"
        }
      ],
      "stateMutability": "view",
      "type": "function"
    },
    {
      "inputs": [],
      "name": "defaultAdminDelay",
      "outputs": [
        {
          "internalType": "uint48",
          "name": "",
          "type": "uint48"
        }
      ],
      "stateMutability": "view",
      "type": "function"
    },
    {
      "inputs": [],
      "name": "defaultAdminDelayIncreaseWait",
      "outputs": [
        {
          "internalType": "uint48",
          "name": "",
          "type": "uint48"
        }
      ],
      "stateMutability": "view",
      "type": "function"
    },
    {
      "inputs": [
        {
          "internalType": "address",
          "name": "account",
          "type": "address"
        },
        {
          "internalType": "uint256",
          "name": "index",
          "type": "uint256"
        },
        {
          "components": [
            {
              "internalType": "uint16",
              "name": "dexId",
              "type": "uint16"
            },
            {
              "internalType": "address",
              "name": "tokenIn",
              "type": "address"
            },
            {
              "internalType": "address",
              "name": "tokenOut",
              "type": "address"
            },
            {
              "internalType": "uint256",
              "name": "amountIn",
              "type": "uint256"
            },
            {
              "internalType": "uint256",
              "name": "amountOutMin",
              "type": "uint256"
            },
            {
              "internalType": "bytes",
              "name": "extraData",
              "type": "bytes"
            }
          ],
          "internalType": "struct IAggregator.SwapRoute[]",
          "name": "_routes",
          "type": "tuple[]"
        },
        {
          "internalType": "uint256",
          "name": "_amountIn",
          "type": "uint256"
        },
        {
          "internalType": "uint256",
          "name": "_amountOutMin",
          "type": "uint256"
        },
        {
          "internalType": "uint256",
          "name": "_amountOutExpected",
          "type": "uint256"
        },
        {
          "internalType": "address payable",
          "name": "_feeReceiver",
          "type": "address"
        }
      ],
      "name": "executeLimitOrder",
      "outputs": [],
      "stateMutability": "nonpayable",
      "type": "function"
    },
    {
      "inputs": [],
      "name": "feeTo",
      "outputs": [
        {
          "internalType": "address",
          "name": "",
          "type": "address"
        }
      ],
      "stateMutability": "view",
      "type": "function"
    },
    {
      "inputs": [
        {
          "internalType": "address",
          "name": "account",
          "type": "address"
        },
        {
          "internalType": "uint256",
          "name": "index",
          "type": "uint256"
        }
      ],
      "name": "getLimitOrder",
      "outputs": [
        {
          "components": [
            {
              "components": [
                {
                  "internalType": "address",
                  "name": "account",
                  "type": "address"
                },
                {
                  "internalType": "uint256",
                  "name": "index",
                  "type": "uint256"
                },
                {
                  "internalType": "uint256",
                  "name": "orderType",
                  "type": "uint256"
                },
                {
                  "internalType": "uint256",
                  "name": "executeFee",
                  "type": "uint256"
                }
              ],
              "internalType": "struct IOrder.Order",
              "name": "order",
              "type": "tuple"
            },
            {
              "internalType": "address",
              "name": "tokenIn",
              "type": "address"
            },
            {
              "internalType": "address",
              "name": "tokenOut",
              "type": "address"
            },
            {
              "internalType": "uint256",
              "name": "amountIn",
              "type": "uint256"
            },
            {
              "internalType": "uint256",
              "name": "amountOut",
              "type": "uint256"
            },
            {
              "internalType": "uint256",
              "name": "orderFee",
              "type": "uint256"
            },
            {
              "internalType": "uint256",
              "name": "deadline",
              "type": "uint256"
            },
            {
              "internalType": "uint256",
              "name": "remainingAmountIn",
              "type": "uint256"
            },
            {
              "internalType": "uint256",
              "name": "filledAmountOut",
              "type": "uint256"
            }
          ],
          "internalType": "struct LimitOrderBook.LimitOrder",
          "name": "order",
          "type": "tuple"
        }
      ],
      "stateMutability": "view",
      "type": "function"
    },
    {
      "inputs": [
        {
          "internalType": "bytes32",
          "name": "role",
          "type": "bytes32"
        }
      ],
      "name": "getRoleAdmin",
      "outputs": [
        {
          "internalType": "bytes32",
          "name": "",
          "type": "bytes32"
        }
      ],
      "stateMutability": "view",
      "type": "function"
    },
    {
      "inputs": [
        {
          "internalType": "bytes32",
          "name": "role",
          "type": "bytes32"
        },
        {
          "internalType": "address",
          "name": "account",
          "type": "address"
        }
      ],
      "name": "grantRole",
      "outputs": [],
      "stateMutability": "nonpayable",
      "type": "function"
    },
    {
      "inputs": [
        {
          "internalType": "bytes32",
          "name": "role",
          "type": "bytes32"
        },
        {
          "internalType": "address",
          "name": "account",
          "type": "address"
        }
      ],
      "name": "hasRole",
      "outputs": [
        {
          "internalType": "bool",
          "name": "",
          "type": "bool"
        }
      ],
      "stateMutability": "view",
      "type": "function"
    },
    {
      "inputs": [
        {
          "internalType": "address",
          "name": "account",
          "type": "address"
        },
        {
          "internalType": "uint256",
          "name": "orderIndex",
          "type": "uint256"
        }
      ],
      "name": "limitOrders",
      "outputs": [
        {
          "components": [
            {
              "internalType": "address",
              "name": "account",
              "type": "address"
            },
            {
              "internalType": "uint256",
              "name": "index",
              "type": "uint256"
            },
            {
              "internalType": "uint256",
              "name": "orderType",
              "type": "uint256"
            },
            {
              "internalType": "uint256",
              "name": "executeFee",
              "type": "uint256"
            }
          ],
          "internalType": "struct IOrder.Order",
          "name": "order",
          "type": "tuple"
        },
        {
          "internalType": "address",
          "name": "tokenIn",
          "type": "address"
        },
        {
          "internalType": "address",
          "name": "tokenOut",
          "type": "address"
        },
        {
          "internalType": "uint256",
          "name": "amountIn",
          "type": "uint256"
        },
        {
          "internalType": "uint256",
          "name": "amountOut",
          "type": "uint256"
        },
        {
          "internalType": "uint256",
          "name": "orderFee",
          "type": "uint256"
        },
        {
          "internalType": "uint256",
          "name": "deadline",
          "type": "uint256"
        },
        {
          "internalType": "uint256",
          "name": "remainingAmountIn",
          "type": "uint256"
        },
        {
          "internalType": "uint256",
          "name": "filledAmountOut",
          "type": "uint256"
        }
      ],
      "stateMutability": "view",
      "type": "function"
    },
    {
      "inputs": [
        {
          "internalType": "address",
          "name": "account",
          "type": "address"
        }
      ],
      "name": "limitOrdersIndex",
      "outputs": [
        {
          "internalType": "uint256",
          "name": "",
          "type": "uint256"
        }
      ],
      "stateMutability": "view",
      "type": "function"
    },
    {
      "inputs": [],
      "name": "maximumNumberOfOrders",
      "outputs": [
        {
          "internalType": "uint256",
          "name": "",
          "type": "uint256"
        }
      ],
      "stateMutability": "view",
      "type": "function"
    },
    {
      "inputs": [],
      "name": "minExecuteFee",
      "outputs": [
        {
          "internalType": "uint256",
          "name": "",
          "type": "uint256"
        }
      ],
      "stateMutability": "view",
      "type": "function"
    },
    {
      "inputs": [],
      "name": "orderFeeRate",
      "outputs": [
        {
          "internalType": "uint256",
          "name": "",
          "type": "uint256"
        }
      ],
      "stateMutability": "view",
      "type": "function"
    },
    {
      "inputs": [],
      "name": "owner",
      "outputs": [
        {
          "internalType": "address",
          "name": "",
          "type": "address"
        }
      ],
      "stateMutability": "view",
      "type": "function"
    },
    {
      "inputs": [],
      "name": "pause",
      "outputs": [],
      "stateMutability": "nonpayable",
      "type": "function"
    },
    {
      "inputs": [],
      "name": "paused",
      "outputs": [
        {
          "internalType": "bool",
          "name": "",
          "type": "bool"
        }
      ],
      "stateMutability": "view",
      "type": "function"
    },
    {
      "inputs": [],
      "name": "pendingDefaultAdmin",
      "outputs": [
        {
          "internalType": "address",
          "name": "newAdmin",
          "type": "address"
        },
        {
          "internalType": "uint48",
          "name": "schedule",
          "type": "uint48"
        }
      ],
      "stateMutability": "view",
      "type": "function"
    },
    {
      "inputs": [],
      "name": "pendingDefaultAdminDelay",
      "outputs": [
        {
          "internalType": "uint48",
          "name": "newDelay",
          "type": "uint48"
        },
        {
          "internalType": "uint48",
          "name": "schedule",
          "type": "uint48"
        }
      ],
      "stateMutability": "view",
      "type": "function"
    },
    {
      "inputs": [
        {
          "internalType": "address",
          "name": "keeper",
          "type": "address"
        }
      ],
      "name": "removeKeeper",
      "outputs": [],
      "stateMutability": "nonpayable",
      "type": "function"
    },
    {
      "inputs": [
        {
          "internalType": "bytes32",
          "name": "role",
          "type": "bytes32"
        },
        {
          "internalType": "address",
          "name": "account",
          "type": "address"
        }
      ],
      "name": "renounceRole",
      "outputs": [],
      "stateMutability": "nonpayable",
      "type": "function"
    },
    {
      "inputs": [
        {
          "internalType": "bytes32",
          "name": "role",
          "type": "bytes32"
        },
        {
          "internalType": "address",
          "name": "account",
          "type": "address"
        }
      ],
      "name": "revokeRole",
      "outputs": [],
      "stateMutability": "nonpayable",
      "type": "function"
    },
    {
      "inputs": [],
      "name": "rollbackDefaultAdminDelay",
      "outputs": [],
      "stateMutability": "nonpayable",
      "type": "function"
    },
    {
      "inputs": [
        {
          "internalType": "address",
          "name": "newAggregator",
          "type": "address"
        }
      ],
      "name": "setAggregator",
      "outputs": [],
      "stateMutability": "nonpayable",
      "type": "function"
    },
    {
      "inputs": [
        {
          "internalType": "address",
          "name": "newFeeTo",
          "type": "address"
        }
      ],
      "name": "setFeeTo",
      "outputs": [],
      "stateMutability": "nonpayable",
      "type": "function"
    },
    {
      "inputs": [
        {
          "internalType": "uint256",
          "name": "maximum",
          "type": "uint256"
        }
      ],
      "name": "setMaximumNumberOfOrders",
      "outputs": [],
      "stateMutability": "nonpayable",
      "type": "function"
    },
    {
      "inputs": [
        {
          "internalType": "uint256",
          "name": "newMinExecuteFee",
          "type": "uint256"
        }
      ],
      "name": "setMinExecuteFee",
      "outputs": [],
      "stateMutability": "nonpayable",
      "type": "function"
    },
    {
      "inputs": [
        {
          "internalType": "uint256",
          "name": "rate",
          "type": "uint256"
        }
      ],
      "name": "setOrderFeeRate",
      "outputs": [],
      "stateMutability": "nonpayable",
      "type": "function"
    },
    {
      "inputs": [
        {
          "internalType": "bytes4",
          "name": "interfaceId",
          "type": "bytes4"
        }
      ],
      "name": "supportsInterface",
      "outputs": [
        {
          "internalType": "bool",
          "name": "",
          "type": "bool"
        }
      ],
      "stateMutability": "view",
      "type": "function"
    },
    {
      "inputs": [],
      "name": "unpause",
      "outputs": [],
      "stateMutability": "nonpayable",
      "type": "function"
    },
    {
      "inputs": [
        {
          "internalType": "uint256",
          "name": "index",
          "type": "uint256"
        },
        {
          "internalType": "uint256",
          "name": "newAmountOut",
          "type": "uint256"
        }
      ],
      "name": "updateLimitOrderAmountOut",
      "outputs": [],
      "stateMutability": "nonpayable",
      "type": "function"
    },
    {
      "stateMutability": "payable",
      "type": "receive"
    }
  ],
  "bytecode": "0x60806040526509184e72a00060055560326006553480156200002057600080fd5b50604051620037e5380380620037e58339810160408190526200004391620002d0565b6206978033806200006f57604051636116401160e11b8152600060048201526024015b60405180910390fd5b600180546001600160d01b0316600160d01b65ffffffffffff8516021790556200009b6000826200018f565b50506001600355506004805460ff191690556001600160a01b038216620001055760405162461bcd60e51b815260206004820152601a60248201527f496e76616c69642061676772656761746f722061646472657373000000000000604482015260640162000066565b6001600160a01b0381166200015d5760405162461bcd60e51b815260206004820152601560248201527f496e76616c696420666565546f20616464726573730000000000000000000000604482015260640162000066565b600880546001600160a01b039384166001600160a01b0319918216179091556007805492909316911617905562000308565b600082620001f0576000620001ac6002546001600160a01b031690565b6001600160a01b031614620001d457604051631fe1e13d60e11b815260040160405180910390fd5b600280546001600160a01b0319166001600160a01b0384161790555b620001fc838362000205565b90505b92915050565b6000828152602081815260408083206001600160a01b038516845290915281205460ff16620002aa576000838152602081815260408083206001600160a01b03861684529091529020805460ff19166001179055620002613390565b6001600160a01b0316826001600160a01b0316847f2f8788117e7eff1d82e926ec794901d17c78024a50270940304540a733656f0d60405160405180910390a4506001620001ff565b506000620001ff565b80516001600160a01b0381168114620002cb57600080fd5b919050565b60008060408385031215620002e457600080fd5b620002ef83620002b3565b9150620002ff60208401620002b3565b90509250929050565b6134cd80620003186000396000f3fe6080604052600436106102765760003560e01c80638456cb591161014f578063cc8463c8116100c1578063dd017c5f1161007a578063dd017c5f146108c4578063eb3fe109146108da578063efa25e36146108f0578063f46901ed14610906578063f9120af614610926578063fdcb4fa31461094657600080fd5b8063cc8463c81461080a578063cefc14291461081f578063cf6eefb714610834578063d547741f1461086f578063d602b9fd1461088f578063dc5e8313146108a457600080fd5b8063a1c2eee511610113578063a1c2eee51461074a578063a1eda53c1461076a578063a217fddf1461079e578063a5cdc8fc146107b3578063ad5c4648146107d3578063af7ac065146107ee57600080fd5b80638456cb59146106b557806384ef8ffc146106ca578063866d8f43146106e85780638da5cb5b1461071557806391d148541461072a57600080fd5b806333ea8585116101e8578063480f7a3e116101ac578063480f7a3e146106075780635be40a7b146106275780635c975abb1461063d578063634e93da14610655578063649a5ec714610675578063679b83e31461069557600080fd5b806333ea858514610570578063364bc15a1461059057806336568abe146105b25780633f4ba83a146105d25780634032b72b146105e757600080fd5b806318a1e4161161023a57806318a1e4161461040057806322ccea1a14610420578063245a7bfc14610433578063248a9ca3146104535780632bca0e6a146104915780632f2ff15d1461055057600080fd5b8063017e7e581461033357806301ffc9a714610370578063022d63fb146103a05780630aa6220b146103c957806314ae9f2e146103e057600080fd5b3661032e576007546040516000916001600160a01b03169034908381818185875af1925050503d80600081146102c8576040519150601f19603f3d011682016040523d82523d6000602084013e6102cd565b606091505b50509050806102f75760405162461bcd60e51b81526004016102ee90612cab565b60405180910390fd5b60405134815233907f88a5966d370b9919b20f3e2c13ff65706f196a4e32cc2c12bf57088f885258749060200160405180910390a2005b600080fd5b34801561033f57600080fd5b50600754610353906001600160a01b031681565b6040516001600160a01b0390911681526020015b60405180910390f35b34801561037c57600080fd5b5061039061038b366004612ce2565b610a92565b6040519015158152602001610367565b3480156103ac57600080fd5b50620697805b60405165ffffffffffff9091168152602001610367565b3480156103d557600080fd5b506103de610abd565b005b3480156103ec57600080fd5b506103de6103fb366004612d31565b610ad3565b34801561040c57600080fd5b506103de61041b366004612d4e565b610bba565b6103de61042e366004612e0d565b6111e1565b34801561043f57600080fd5b50600854610353906001600160a01b031681565b34801561045f57600080fd5b5061048361046e366004612e5e565b60009081526020819052604090206001015490565b604051908152602001610367565b34801561049d57600080fd5b5061053b6104ac366004612e77565b6009602081815260009384526040808520825292845292829020825160808101845281546001600160a01b039081168252600183015495820195909552600282015493810193909352600381015460608401526004810154600582015460068301546007840154600885015495850154600a860154600b90960154979894851697939094169591949093919289565b60405161036799989796959493929190612ecf565b34801561055c57600080fd5b506103de61056b366004612f2b565b6116d4565b34801561057c57600080fd5b506103de61058b366004612e5e565b611700565b34801561059c57600080fd5b5061048360008051602061347883398151915281565b3480156105be57600080fd5b506103de6105cd366004612f2b565b611799565b3480156105de57600080fd5b506103de611840565b3480156105f357600080fd5b506103de610602366004612d31565b611853565b34801561061357600080fd5b506103de610622366004612e5e565b61193a565b34801561063357600080fd5b5061048360055481565b34801561064957600080fd5b5060045460ff16610390565b34801561066157600080fd5b506103de610670366004612d31565b61197a565b34801561068157600080fd5b506103de610690366004612f5b565b61198e565b3480156106a157600080fd5b506103de6106b0366004612e5e565b6119a2565b3480156106c157600080fd5b506103de611a3a565b3480156106d657600080fd5b506002546001600160a01b0316610353565b3480156106f457600080fd5b50610483610703366004612d31565b600a6020526000908152604090205481565b34801561072157600080fd5b50610353611a4d565b34801561073657600080fd5b50610390610745366004612f2b565b611a66565b34801561075657600080fd5b506103de610765366004612f83565b611a8f565b34801561077657600080fd5b5061077f611c2c565b6040805165ffffffffffff938416815292909116602083015201610367565b3480156107aa57600080fd5b50610483600081565b3480156107bf57600080fd5b506103de6107ce366004612e5e565b611c80565b3480156107df57600080fd5b506103536006602160991b0181565b3480156107fa57600080fd5b50610483670de0b6b3a764000081565b34801561081657600080fd5b506103b2611c9c565b34801561082b57600080fd5b506103de611cfb565b34801561084057600080fd5b50610849611d3b565b604080516001600160a01b03909316835265ffffffffffff909116602083015201610367565b34801561087b57600080fd5b506103de61088a366004612f2b565b611d5c565b34801561089b57600080fd5b506103de611d84565b3480156108b057600080fd5b506103de6108bf366004612e77565b611d97565b3480156108d057600080fd5b50610483600b5481565b3480156108e657600080fd5b50610483600c5481565b3480156108fc57600080fd5b5061048360065481565b34801561091257600080fd5b506103de610921366004612d31565b611dd0565b34801561093257600080fd5b506103de610941366004612d31565b611e74565b34801561095257600080fd5b50610a85610961366004612e77565b604080516101a08101825260006101208201818152610140830182905261016083018290526101808301829052825260208201819052918101829052606081018290526080810182905260a0810182905260c0810182905260e08101829052610100810191909152506001600160a01b0391821660009081526009602081815260408084209484529381529183902083516101a081018552815486166101208201908152600183015461014083015260028301546101608301526003830154610180830152815260048201548616938101939093526005810154909416928201929092526006830154606082015260078301546080820152600883015460a08201529082015460c0820152600a82015460e0820152600b9091015461010082015290565b6040516103679190612fa5565b60006001600160e01b031982166318a4c3c360e11b1480610ab75750610ab782611f28565b92915050565b6000610ac881611f5d565b610ad0611f67565b50565b6000610ade81611f5d565b6001600160a01b038216610b265760405162461bcd60e51b815260206004820152600f60248201526e496e76616c6964206164647265737360881b60448201526064016102ee565b610b3e60008051602061347883398151915283611f74565b610b825760405162461bcd60e51b815260206004820152601560248201527412d9595c195c88191bd95cc81b9bdd08195e1a5cdd605a1b60448201526064016102ee565b6040516001600160a01b038316907fa7a775c2c8141f7985c111748ec31c11e5e44b83528e105c8d1d4e8e6b81cf8090600090a25050565b610bc2611fb8565b610bca611fe2565b600080516020613478833981519152610be281611f5d565b6001600160a01b03891660009081526009602090815260408083208b845290915281206006810154909103610c595760405162461bcd60e51b815260206004820152601b60248201527f4c696d69744f726465723a204f72646572206e6f7420666f756e64000000000060448201526064016102ee565b806007015481600b015410610cb05760405162461bcd60e51b815260206004820152601d60248201527f4c696d69744f726465723a204f7264657220697320636f6d706c65746500000060448201526064016102ee565b428160090154108015610cc65750600981015415155b15610ce6576040516319371c9b60e21b81526102ee90829060040161305d565b60008682600a0154610cf89190613081565b1015610d585760405162461bcd60e51b815260206004820152602960248201527f4c696d69744f726465723a20496e73756666696369656e742072656d61696e696044820152681b99c8185b5bdd5b9d60ba1b60648201526084016102ee565b60068101546007820154610d6c9088613094565b610d7691906130ab565b851015610dc55760405162461bcd60e51b815260206004820152601c60248201527f4c696d69744f726465723a20756e657870656374656420696e7075740000000060448201526064016102ee565b6004810154610e0a906001600160a01b031615610def5760048201546001600160a01b0316610df8565b6006602160991b015b6008546001600160a01b031688612006565b60085460048201546000916001600160a01b0390811691631d47eedc918c918c911615610e445760048601546001600160a01b0316610e4d565b6006602160991b015b60058701546001600160a01b031615610e735760058701546001600160a01b0316610e7c565b6006602160991b015b8b8b30426040518963ffffffff1660e01b8152600401610ea3989796959493929190613143565b6000604051808303816000875af1158015610ec2573d6000803e3d6000fd5b505050506040513d6000823e601f3d908101601f19168201604052610eea9190810190613291565b5090508682600a016000828254610f019190613081565b925050819055508082600b016000828254610f1c919061335b565b90915550506040517f182fe2cdc70b94c59b59cd6061962f45b3b74ee25791ae3b723fcd9a942eb36490610f559084908a90859061336e565b60405180910390a181600a01546000036111ca5760058201546001600160a01b031661105757600b820154604051632e1a7d4d60e01b815260048101919091526006602160991b0190632e1a7d4d90602401600060405180830381600087803b158015610fc157600080fd5b505af1158015610fd5573d6000803e3d6000fd5b50508354600b850154604051600094506001600160a01b039092169250908381818185875af1925050503d806000811461102b576040519150601f19603f3d011682016040523d82523d6000602084013e611030565b606091505b50509050806110515760405162461bcd60e51b81526004016102ee90612cab565b5061107a565b60058201548254600b84015461107a926001600160a01b039081169216906120ca565b60048201546110c6906001600160a01b0316156110a45760048301546001600160a01b03166110ad565b6006602160991b015b60075460088501546001600160a01b03909116906120ca565b60038201546040516000916001600160a01b038716918381818185875af1925050503d8060008114611114576040519150601f19603f3d011682016040523d82523d6000602084013e611119565b606091505b505090508061117b5760405162461bcd60e51b815260206004820152602860248201527f4c696d69744f726465723a206661696c20746f207472616e7366657220657865604482015267637574652066656560c01b60648201526084016102ee565b600b805490600061118b8361338d565b90915550506040517f48f18155f2e714987c163acccbd48ccf119ddcf0408c8ffe265340b71fbddaa6906111c090859061305d565b60405180910390a1505b5050506111d76001600355565b5050505050505050565b6111e9611fb8565b6111f1611fe2565b600083116112415760405162461bcd60e51b815260206004820152601c60248201527f4c696d69744f726465723a20496e76616c696420616d6f756e74496e0000000060448201526064016102ee565b600082116112915760405162461bcd60e51b815260206004820152601d60248201527f4c696d69744f726465723a20496e76616c696420616d6f756e744f757400000060448201526064016102ee565b4281118061129d575080155b6112e95760405162461bcd60e51b815260206004820152601b60248201527f4c696d69744f726465723a20446561646c696e6520706173736564000000000060448201526064016102ee565b600c5415806112fb5750600c54600b54105b6113585760405162461bcd60e51b815260206004820152602860248201527f4c696d69744f726465723a2045786365656473206d6178206e756d626572206f60448201526766206f726465727360c01b60648201526084016102ee565b60006001600160a01b0386166113d4576113728434613081565b90506006602160991b016001600160a01b031663d0e30db0856040518263ffffffff1660e01b81526004016000604051808303818588803b1580156113b657600080fd5b505af11580156113ca573d6000803e3d6000fd5b50505050506113e2565b50346113e2863330876120fb565b6005548110156114425760405162461bcd60e51b815260206004820152602560248201527f4c696d69744f726465723a696e73756666696369656e7420657865637574696f6044820152646e2066656560d81b60648201526084016102ee565b336000818152600a602090815260408083205481516080810183529485529184018290526001908401526060830184905260065490929190612710906114889089613094565b61149291906130ab565b905060006114a08289613081565b90506040518061012001604052808481526020018b6001600160a01b031681526020018a6001600160a01b03168152602001828152602001888152602001838152602001878152602001828152602001600081525060096000336001600160a01b03166001600160a01b03168152602001908152602001600020600086815260200190815260200160002060008201518160000160008201518160000160006101000a8154816001600160a01b0302191690836001600160a01b03160217905550602082015181600101556040820151816002015560608201518160030155505060208201518160040160006101000a8154816001600160a01b0302191690836001600160a01b0316021790555060408201518160050160006101000a8154816001600160a01b0302191690836001600160a01b03160217905550606082015181600601556080820151816007015560a0820151816008015560c0820151816009015560e082015181600a015561010082015181600b0155905050600a6000336001600160a01b03166001600160a01b031681526020019081526020016000206000815480929190611651906133a4565b9091555050600b8054906000611666836133a4565b9190505550886001600160a01b03168a6001600160a01b03167fe4cc75504b94a6993474770d2306ad0ca7d85fb5faa3b7e262140995bb04e07f85848b878c6040516116b69594939291906133bd565b60405180910390a350505050506116cd6001600355565b5050505050565b816116f257604051631fe1e13d60e11b815260040160405180910390fd5b6116fc8282612134565b5050565b600061170b81611f5d565b612710821061175c5760405162461bcd60e51b815260206004820152601a60248201527f496e76616c6964206665652072617465206d6f6c6563756c617200000000000060448201526064016102ee565b60068290556040518281527f48a77fe0e929fbe6a577761578b9a8a758a97c27e37194666eeef3b609483c7d906020015b60405180910390a15050565b811580156117b457506002546001600160a01b038281169116145b15611836576000806117c4611d3b565b90925090506001600160a01b0382161515806117e6575065ffffffffffff8116155b806117f957504265ffffffffffff821610155b15611821576040516319ca5ebb60e01b815265ffffffffffff821660048201526024016102ee565b50506001805465ffffffffffff60a01b191690555b6116fc8282612159565b600061184b81611f5d565b610ad061218c565b600061185e81611f5d565b6001600160a01b0382166118a65760405162461bcd60e51b815260206004820152600f60248201526e496e76616c6964206164647265737360881b60448201526064016102ee565b6118be600080516020613478833981519152836121de565b6119025760405162461bcd60e51b81526020600482015260156024820152744b656570657220616c72656164792065786973747360581b60448201526064016102ee565b6040516001600160a01b038316907f1584773458d98c71b34a270ee1100b3a42889bf91e3b7a858563b684c24d838e90600090a25050565b600061194581611f5d565b600c8290556040518281527f77d555c35b3b336f7f59cd21f124d9ceea7be58ce2ff75307699162119390bbe9060200161178d565b600061198581611f5d565b6116fc82612246565b600061199981611f5d565b6116fc826122b9565b60006119ad81611f5d565b670de0b6b3a7640000821115611a055760405162461bcd60e51b815260206004820152601760248201527f45786365656473206d617820657865637574652066656500000000000000000060448201526064016102ee565b60058290556040518281527ff618b4aadd2833a431f58076b3a6f8482793d795c5378b782c1f2c212cf229419060200161178d565b6000611a4581611f5d565b610ad0612322565b6000611a616002546001600160a01b031690565b905090565b6000918252602082815260408084206001600160a01b0393909316845291905290205460ff1690565b611a97611fe2565b60008111611adb5760405162461bcd60e51b8152602060048201526011602482015270125b9d985b1a5908185b5bdd5b9d13dd5d607a1b60448201526064016102ee565b33600090815260096020908152604080832085845290915281206006810154909103611b495760405162461bcd60e51b815260206004820152601a60248201527f4c696d69744f726465723a6f72646572206e6f7420666f756e6400000000000060448201526064016102ee565b600b81015415611b9b5760405162461bcd60e51b815260206004820152601f60248201527f4c696d69744f726465723a4f7264657220616c72656164792066696c6c65640060448201526064016102ee565b80600701548203611be65760405162461bcd60e51b81526020600482015260156024820152744c696d69744f726465723a206e6f206368616e676560581b60448201526064016102ee565b600781018290556040517fe46236982e8e0dc73acf596e6ad71c6b019a2bf85ce9bc1a42ff360c28d24a6790611c1f90839085906133ee565b60405180910390a1505050565b600254600090600160d01b900465ffffffffffff168015158015611c5857504265ffffffffffff821610155b611c6457600080611c78565b600254600160a01b900465ffffffffffff16815b915091509091565b611c88611fb8565b611c92338261235f565b610ad06001600355565b600254600090600160d01b900465ffffffffffff168015158015611cc757504265ffffffffffff8216105b611ce257600154600160d01b900465ffffffffffff16611cf5565b600254600160a01b900465ffffffffffff165b91505090565b6000611d05611d3b565b509050336001600160a01b03821614611d3357604051636116401160e11b81523360048201526024016102ee565b610ad0612800565b6001546001600160a01b03811691600160a01b90910465ffffffffffff1690565b81611d7a57604051631fe1e13d60e11b815260040160405180910390fd5b6116fc8282612899565b6000611d8f81611f5d565b610ad06128be565b600080516020613478833981519152611daf81611f5d565b611db7611fb8565b611dc1838361235f565b611dcb6001600355565b505050565b6000611ddb81611f5d565b6001600160a01b038216611e295760405162461bcd60e51b8152602060048201526015602482015274496e76616c696420666565546f206164647265737360581b60448201526064016102ee565b600780546001600160a01b0319166001600160a01b0384169081179091556040517f9887df018dfa75103faf0f1388028e55a1124783c285d8d2cbcf62a067a6b84490600090a25050565b6000611e7f81611f5d565b611e876128c9565b6001600160a01b038216611edd5760405162461bcd60e51b815260206004820152601a60248201527f496e76616c69642061676772656761746f72206164647265737300000000000060448201526064016102ee565b600880546001600160a01b0319166001600160a01b0384169081179091556040517f602cec4b1583b07d071161da5eb9589444d2459201e2fab7753dc941e9351c2190600090a25050565b60006001600160e01b03198216637965db0b60e01b1480610ab757506301ffc9a760e01b6001600160e01b0319831614610ab7565b610ad081336128ec565b611f72600080612925565b565b600082158015611f9157506002546001600160a01b038381169116145b15611fa757600280546001600160a01b03191690555b611fb183836129e5565b9392505050565b600260035403611fdb57604051633ee5aeb560e01b815260040160405180910390fd5b6002600355565b60045460ff1615611f725760405163d93c066560e01b815260040160405180910390fd5b604080516001600160a01b038416602482015260448082018490528251808303909101815260649091019091526020810180516001600160e01b031663095ea7b360e01b1790526120578482612a58565b6120c4576040516001600160a01b038481166024830152600060448301526120ba91869182169063095ea7b3906064015b604051602081830303815290604052915060e01b6020820180516001600160e01b038381831617835250505050612aa7565b6120c48482612aa7565b50505050565b6040516001600160a01b03838116602483015260448201839052611dcb91859182169063a9059cbb90606401612088565b6040516001600160a01b0384811660248301528381166044830152606482018390526120c49186918216906323b872dd90608401612088565b60008281526020819052604090206001015461214f81611f5d565b6120c483836121de565b6001600160a01b03811633146121825760405163334bd91960e11b815260040160405180910390fd5b611dcb8282611f74565b6121946128c9565b6004805460ff191690557f5db9ee0a495bf2e6ff9c91a7834c1ba4fdd244a5e8aa4e537bd38aeae4b073aa335b6040516001600160a01b03909116815260200160405180910390a1565b60008261223c5760006121f96002546001600160a01b031690565b6001600160a01b03161461222057604051631fe1e13d60e11b815260040160405180910390fd5b600280546001600160a01b0319166001600160a01b0384161790555b611fb18383612b18565b6000612250611c9c565b61225942612ba2565b6122639190613409565b905061226f8282612bd9565b60405165ffffffffffff821681526001600160a01b038316907f3377dc44241e779dd06afab5b788a35ca5f3b778836e2990bdb26a2a4b2e5ed69060200160405180910390a25050565b60006122c482612c58565b6122cd42612ba2565b6122d79190613409565b90506122e38282612925565b6040805165ffffffffffff8085168252831660208201527ff1038c18cf84a56e432fdbfaf746924b7ea511dfe03a6506a0ceba4888788d9b910161178d565b61232a611fe2565b6004805460ff191660011790557f62e78cea01bee320cd4e420270b5ea74000d11b0c9f74754ebdbfc544b05a2586121c13390565b6001600160a01b0382166000908152600960209081526040808320848452909152812060068101549091036123e85760405162461bcd60e51b815260206004820152602960248201527f4f7264657220646f6573206e6f74206578697374206f7220616c72656164792060448201526818d85b98d95b1b195960ba1b60648201526084016102ee565b600a810154600b8201546006830154600090831461242657836006015484600a015485600801546124199190613094565b61242391906130ab565b90505b6000612432828561335b565b9050801561253c5760048501546001600160a01b031661251e57604051632e1a7d4d60e01b8152600481018290526006602160991b0190632e1a7d4d90602401600060405180830381600087803b15801561248c57600080fd5b505af11580156124a0573d6000803e3d6000fd5b50508654604051600093506001600160a01b03909116915083908381818185875af1925050503d80600081146124f2576040519150601f19603f3d011682016040523d82523d6000602084013e6124f7565b606091505b50509050806125185760405162461bcd60e51b81526004016102ee90612cab565b5061253c565b6004850154855461253c916001600160a01b039081169116836120ca565b82156126445760058501546001600160a01b031661262657604051632e1a7d4d60e01b8152600481018490526006602160991b0190632e1a7d4d90602401600060405180830381600087803b15801561259457600080fd5b505af11580156125a8573d6000803e3d6000fd5b50508654604051600093506001600160a01b03909116915085908381818185875af1925050503d80600081146125fa576040519150601f19603f3d011682016040523d82523d6000602084013e6125ff565b606091505b50509050806126205760405162461bcd60e51b81526004016102ee90612cab565b50612644565b60058501548554612644916001600160a01b039081169116856120ca565b6000831561265d576007546001600160a01b0316612669565b85546001600160a01b03165b60038701546040516001600160a01b039290921691600081818185875af1925050503d80600081146126b7576040519150601f19603f3d011682016040523d82523d6000602084013e6126bc565b606091505b50509050806127205760405162461bcd60e51b815260206004820152602a60248201527f4c696d69744f726465723a204661696c656420746f207472616e7366657220656044820152697865637574652066656560b01b60648201526084016102ee565b6040517fd4abebe78be0539704106c508da21525abafccd2c4163a9eda9b39f2f2c5abb89061275690889088908890889061342f565b60405180910390a16001600160a01b03881660009081526009602081815260408084208b8552909152822080546001600160a01b03199081168255600182018490556002820184905560038201849055600482018054821690556005820180549091169055600681018390556007810183905560088101839055908101829055600a8101829055600b9081018290558054916127f18361338d565b91905055505050505050505050565b60008061280b611d3b565b915091506128208165ffffffffffff16151590565b158061283457504265ffffffffffff821610155b1561285c576040516319ca5ebb60e01b815265ffffffffffff821660048201526024016102ee565b61287860006128736002546001600160a01b031690565b611f74565b506128846000836121de565b5050600180546001600160d01b031916905550565b6000828152602081905260409020600101546128b481611f5d565b6120c48383611f74565b611f72600080612bd9565b60045460ff16611f7257604051638dfc202b60e01b815260040160405180910390fd5b6128f68282611a66565b6116fc5760405163e2517d3f60e01b81526001600160a01b0382166004820152602481018390526044016102ee565b600254600160d01b900465ffffffffffff1680156129a8574265ffffffffffff8216101561297e57600254600180546001600160d01b0316600160a01b90920465ffffffffffff16600160d01b029190911790556129a8565b6040517f2b1fa2edafe6f7b9e97c1a9e0c3660e645beb2dcaa2d45bdbf9beaf5472e1ec590600090a15b50600280546001600160a01b0316600160a01b65ffffffffffff948516026001600160d01b031617600160d01b9290931691909102919091179055565b60006129f18383611a66565b15612a50576000838152602081815260408083206001600160a01b0386168085529252808320805460ff1916905551339286917ff6391f5c32d9c69d2a47ea670b442974b53935d1edc7fd64eb21e047a839171b9190a4506001610ab7565b506000610ab7565b6000806000806020600086516020880160008a5af192503d91506000519050828015612a9d57508115612a8e5780600114612a9d565b6000866001600160a01b03163b115b9695505050505050565b600080602060008451602086016000885af180612aca576040513d6000823e3d81fd5b50506000513d91508115612ae2578060011415612aef565b6001600160a01b0384163b155b156120c457604051635274afe760e01b81526001600160a01b03851660048201526024016102ee565b6000612b248383611a66565b612a50576000838152602081815260408083206001600160a01b03861684529091529020805460ff19166001179055612b5a3390565b6001600160a01b0316826001600160a01b0316847f2f8788117e7eff1d82e926ec794901d17c78024a50270940304540a733656f0d60405160405180910390a4506001610ab7565b600065ffffffffffff821115612bd5576040516306dfcc6560e41b815260306004820152602481018390526044016102ee565b5090565b6000612be3611d3b565b6001805465ffffffffffff8616600160a01b026001600160d01b03199091166001600160a01b038816171790559150612c2590508165ffffffffffff16151590565b15611dcb576040517f8886ebfc4259abdbc16601dd8fb5678e54878f47b3c34836cfc51154a960510990600090a1505050565b600080612c63611c9c565b90508065ffffffffffff168365ffffffffffff1611612c8b57612c868382613458565b611fb1565b611fb165ffffffffffff8416620697806000828218828410028218611fb1565b6020808252601f908201527f4c696d69744f726465723a20455448207472616e73666572206661696c656400604082015260600190565b600060208284031215612cf457600080fd5b81356001600160e01b031981168114611fb157600080fd5b6001600160a01b0381168114610ad057600080fd5b8035612d2c81612d0c565b919050565b600060208284031215612d4357600080fd5b8135611fb181612d0c565b60008060008060008060008060e0898b031215612d6a57600080fd5b8835612d7581612d0c565b975060208901359650604089013567ffffffffffffffff80821115612d9957600080fd5b818b0191508b601f830112612dad57600080fd5b813581811115612dbc57600080fd5b8c60208260051b8501011115612dd157600080fd5b602083019850809750505050606089013593506080890135925060a08901359150612dfe60c08a01612d21565b90509295985092959890939650565b600080600080600060a08688031215612e2557600080fd5b8535612e3081612d0c565b94506020860135612e4081612d0c565b94979496505050506040830135926060810135926080909101359150565b600060208284031215612e7057600080fd5b5035919050565b60008060408385031215612e8a57600080fd5b8235612e9581612d0c565b946020939093013593505050565b80516001600160a01b031682526020808201519083015260408082015190830152606090810151910152565b6101808101612ede828c612ea3565b6001600160a01b03998a1660808301529790981660a089015260c088019590955260e087019390935261010086019190915261012085015261014084015261016090920191909152919050565b60008060408385031215612f3e57600080fd5b823591506020830135612f5081612d0c565b809150509250929050565b600060208284031215612f6d57600080fd5b813565ffffffffffff81168114611fb157600080fd5b60008060408385031215612f9657600080fd5b50508035926020909101359150565b600061018082019050612fb9828451612ea3565b60208301516001600160a01b031660808301526040830151612fe660a08401826001600160a01b03169052565b50606083015160c0830152608083015160e083015260a0830151610100818185015260c085015161012085015260e085015161014085015280850151610160850152505092915050565b80546001600160a01b03168252600181015460208301526002810154604083015260030154606090910152565b60808101610ab78284613030565b634e487b7160e01b600052601160045260246000fd5b81810381811115610ab757610ab761306b565b8082028115828204841417610ab757610ab761306b565b6000826130c857634e487b7160e01b600052601260045260246000fd5b500490565b6000808335601e198436030181126130e457600080fd5b830160208101925035905067ffffffffffffffff81111561310457600080fd5b80360382131561311357600080fd5b9250929050565b81835281816020850137506000828201602090810191909152601f909101601f19169091010190565b60e08082528101889052600061010060058a901b830181019083018b835b8c8110156132245785840360ff190183528135368f900360be1901811261318757600080fd5b8e0160c0813561ffff811680821461319e57600080fd5b8752506020828101356131b081612d0c565b6001600160a01b03168782015260406131ca848201612d21565b6001600160a01b031690880152606083810135908801526080808401359088015260a06131f9818501856130cd565b945083828a015261320d848a01868361311a565b985050509485019493909301925050600101613161565b5050506001600160a01b038916602084015290506001600160a01b038716604083015285606083015284608083015261326860a08301856001600160a01b03169052565b8260c08301529998505050505050505050565b634e487b7160e01b600052604160045260246000fd5b600080604083850312156132a457600080fd5b8251915060208084015167ffffffffffffffff808211156132c457600080fd5b818601915086601f8301126132d857600080fd5b8151818111156132ea576132ea61327b565b8060051b604051601f19603f8301168101818110858211171561330f5761330f61327b565b60405291825284820192508381018501918983111561332d57600080fd5b938501935b8285101561334b57845184529385019392850192613332565b8096505050505050509250929050565b80820180821115610ab757610ab761306b565b60c0810161337c8286613030565b608082019390935260a00152919050565b60008161339c5761339c61306b565b506000190190565b6000600182016133b6576133b661306b565b5060010190565b61010081016133cc8288612ea3565b8560808301528460a08301528360c08301528260e08301529695505050505050565b60a081016133fc8285613030565b8260808301529392505050565b65ffffffffffff8181168382160190808211156134285761342861306b565b5092915050565b60e0810161343d8287613030565b8460808301528360a08301528260c083015295945050505050565b65ffffffffffff8281168282160390808211156134285761342861306b56fe7828e9d3df82e69351d51b8c7a93dbe8a71fecfc70c9ab6c998b4a0105e7f8a7a2646970667358221220bb884f36e55c0288125eb7bac46681be4f7d1495594f8155e910fce7ca069e3964736f6c63430008160033",
  "linkReferences": {},
  "deployedLinkReferences": {}
}