{
  "_format": "hh-sol-artifact-1",
  "contractName": "Multicall",
  "sourceName": "contracts/base/Multicall.sol",
  "abi": [
    {
      "inputs": [
        {
          "components": [
            {
              "internalType": "address",
              "name": "target",
              "type": "address"
            },
            {
              "internalType": "bytes",
              "name": "callData",
              "type": "bytes"
            },
            {
              "internalType": "uint256",
              "name": "value",
              "type": "uint256"
            }
          ],
          "internalType": "struct Multicall.Call[]",
          "name": "calls",
          "type": "tuple[]"
        }
      ],
      "name": "aggregate",
      "outputs": [
        {
          "internalType": "bool[]",
          "name": "",
          "type": "bool[]"
        },
        {
          "internalType": "bytes[]",
          "name": "",
          "type": "bytes[]"
        }
      ],
      "stateMutability": "payable",
      "type": "function"
    },
    {
      "inputs": [
        {
          "components": [
            {
              "internalType": "address",
              "name": "target",
              "type": "address"
            },
            {
              "internalType": "bytes",
              "name": "callData",
              "type": "bytes"
            },
            {
              "internalType": "uint256",
              "name": "value",
              "type": "uint256"
            }
          ],
          "internalType": "struct Multicall.Call[]",
          "name": "calls",
          "type": "tuple[]"
        }
      ],
      "name": "multicall",
      "outputs": [
        {
          "components": [
            {
              "internalType": "bool",
              "name": "success",
              "type": "bool"
            },
            {
              "internalType": "bytes",
              "name": "data",
              "type": "bytes"
            }
          ],
          "internalType": "struct Multicall.Result[]",
          "name": "results",
          "type": "tuple[]"
        }
      ],
      "stateMutability": "payable",
      "type": "function"
    }
  ],
  "bytecode": "0x6080806040523461001657610971908161001c8239f35b600080fdfe604060808152600436101561001357600080fd5b600090813560e01c91826314977fa21461003d57505063e8abf3791461003857600080fd5b610397565b60209081600319360112610181576001600160401b039160043583811161017d573660238201121561017d578060040135610077816101fc565b94610084875196876101ba565b818652838601916024809160051b8501019336851161017957818101935b8585106100c7576100c38a6100b68b61080f565b9290915192839283610284565b0390f35b843584811161017557820160606023198236030112610175578a51906100ec8261019a565b848101356100f981610213565b8252604480820135878111610171578201903660438301121561017157908d91878201359161013361012a84610229565b945194856101ba565b8284523682848301011161016d57928d8d84606495829a9895839a980183860137830101528584015201358d8201528152019401936100a2565b8d80fd5b8b80fd5b8880fd5b8680fd5b8280fd5b80fd5b634e487b7160e01b600052604160045260246000fd5b606081019081106001600160401b038211176101b557604052565b610184565b601f909101601f19168101906001600160401b038211908210176101b557604052565b60408051919082016001600160401b038111838210176101b557604052565b6001600160401b0381116101b55760051b60200190565b6001600160a01b0381160361022457565b600080fd5b6001600160401b0381116101b557601f01601f191660200190565b919082519283825260005b848110610270575050826000602080949584010152601f8019910116010190565b60208183018101518483018201520161024f565b906040820191604081528151809352606081019260208093019060005b81811061030a57505050818184039101528251908183528083019281808460051b8301019501936000915b8483106102dc5750505050505090565b90919293949584806102fa600193601f198682030187528a51610244565b98019301930191949392906102cc565b82511515865294840194918401916001016102a1565b602080820190808352835180925260409283810182858560051b8401019601946000925b858410610355575050505050505090565b909192939495968580610386600193603f1986820301885286838d5180511515845201519181858201520190610244565b990194019401929594939190610344565b602080600319360112610224576001600160401b0390600435908282116102245736602383011215610224578160040135928311610224576024820191602436918560051b010111610224576103ec8361051e565b92600092835b82811061040757604051806100c38882610320565b6104e5906104256040968761041d8488886105d0565b0135906105f7565b9561043287341015610604565b600061043c61064e565b50816104498488886105d0565b0135156104ea57506000809161049f61046b610466868a8a6105d0565b610671565b9180610478878b8b6105d0565b013590610492610489888c8c6105d0565b8c81019061067e565b93909151809481936106b0565b03925af16104ab6106be565b6104b4826106ee565b6104c66104bf6101dd565b9215158352565b868201526104d48289610739565b526104df8188610739565b506105a6565b6103f2565b809161050d826104fe610466878b8b6105d0565b92610492610489888c8c6105d0565b03925af16105196106be565b6104ab565b90610528826101fc565b604090610537825191826101ba565b8381528093610548601f19916101fc565b0190600090815b83811061055d575050505050565b845180860191906001600160401b038311818410176101b55760209287528481528260608183015282850101520161054f565b634e487b7160e01b600052601160045260246000fd5b60001981146105b55760010190565b610590565b634e487b7160e01b600052603260045260246000fd5b91908110156105f25760051b81013590605e1981360301821215610224570190565b6105ba565b919082018092116105b557565b1561060b57565b60405162461bcd60e51b815260206004820152601b60248201527a125b9cdd59999a58da595b9d081d985b1d59481c1c9bdd9a591959602a1b6044820152606490fd5b60405190602082016001600160401b038111838210176101b55760405260008252565b3561067b81610213565b90565b903590601e198136030182121561022457018035906001600160401b0382116102245760200191813603831361022457565b908092918237016000815290565b3d156106e9573d906106cf82610229565b916106dd60405193846101ba565b82523d6000602084013e565b606090565b156106f557565b606460405162461bcd60e51b815260206004820152602060248201527f4d756c746963616c6c206167677265676174653a2063616c6c206661696c65646044820152fd5b80518210156105f25760209160051b010190565b90610757826101fc565b61076460405191826101ba565b8281528092610775601f19916101fc565b0190602036910137565b90610789826101fc565b61079660405191826101ba565b82815280926107a7601f19916101fc565b019060005b8281106107b857505050565b8060606020809385010152016107ac565b156107d057565b60405162461bcd60e51b8152602060048201526017602482015276125b9cdd59999a58da595b9d081d985b1d59481cd95b9d604a1b6044820152606490fd5b9061081a825161074d565b610824835161077f565b926000805b8251821015610934578161092960008061092e946108b4966108d660409261086a8b6108638661085a873494610739565b510151846105f7565b11156107c9565b6108c28b61087b6020958692610739565b5101518481015160448083015160649384015189519889019384523360248a015291880152151591860191909152939a8b906084820190565b03601f1981018c528b6101ba565b836108cd898d610739565b510151906105f7565b976108f26108e4888c610739565b51516001600160a01b031690565b926108fd888c610739565b5101519051925af161090d6106be565b610917848b610739565b526109228388610739565b9015159052565b6105a6565b90610829565b505050919056fea2646970667358221220ab7a3b0056a89af17f485919e73e15b73f9673b743a646d3a1130d1503955a8e64736f6c63430008140033",
  "linkReferences": {},
  "deployedLinkReferences": {}
}